:020000040000fa
:080000000002040000000000f2
:020000040000fa
:0400080000030000f1
:020000040000fa
:04000c0000030000ed
:020000040000fa
:0400100000030000e9
:020000040000fa
:0400140000030000e5
:020000040000fa
:0400180000030000e1
:020000040000fa
:04001c0000030000dd
:020000040000fa
:0400200000030000d9
:020000040000fa
:0400240000030000d5
:020000040000fa
:0400280000030000d1
:020000040000fa
:04002c0000030000cd
:020000040000fa
:0400300000030000c9
:020000040000fa
:04003400d0020000f6
:020000040000fa
:0400380000030000c1
:020000040000fa
:04003c0000030000bd
:020000040000fa
:0400400000030000b9
:020000040000fa
:0400440000030000b5
:020000040000fa
:0400480000030000b1
:020000040000fa
:04004c0000030000ad
:020000040000fa
:0400500000030000a9
:020000040000fa
:0400540000030000a5
:020000040000fa
:0400580000030000a1
:020000040000fa
:04005c00000300009d
:020000040000fa
:040060000003000099
:020000040000fa
:040064000003000095
:020000040000fa
:040068000003000091
:020000040000fa
:04006c00000300008d
:020000040000fa
:040070000003000089
:020000040000fa
:040074000003000085
:020000040000fa
:040078000003000081
:020000040000fa
:04007c00000300007d
:020000040000fa
:040080000003000079
:020000040000fa
:040084000003000075
:020000040000fa
:040088000003000071
:020000040000fa
:04008c00000300006d
:020000040000fa
:040090000003000069
:020000040000fa
:040094000003000065
:020000040000fa
:040098000003000061
:020000040000fa
:04009c00000300005d
:020000040000fa
:0400a0000003000059
:020000040000fa
:0400a4000003000055
:020000040000fa
:0400a8000003000051
:020000040000fa
:0400ac00000300004d
:020000040000fa
:0400b0000003000049
:020000040000fa
:0400b4000003000045
:020000040000fa
:0400b8000003000041
:020000040000fa
:0400bc00000300003d
:020000040000fa
:0400c0000003000039
:020000040000fa
:0400c4000003000035
:020000040000fa
:0400c8000003000031
:020000040000fa
:0400cc00000300002d
:020000040000fa
:0400d0000003000029
:020000040000fa
:0400d4000003000025
:020000040000fa
:0400d8000003000021
:020000040000fa
:0400dc00000300001d
:020000040000fa
:0400e0000003000019
:020000040000fa
:0400e4000003000015
:020000040000fa
:0400e8000003000011
:020000040000fa
:0400ec00000300000d
:020000040000fa
:0400f0000003000009
:020000040000fa
:0400f4000003000005
:020000040000fa
:0400f8000003000001
:020000040000fa
:0400fc0000030000fd
:020000040000fa
:0401000000030000f8
:020000040000fa
:0401040000030000f4
:020000040000fa
:0401080000030000f0
:020000040000fa
:04010c0000030000ec
:020000040000fa
:0401100000030000e8
:020000040000fa
:0401140000030000e4
:020000040000fa
:0401180000030000e0
:020000040000fa
:04011c0000030000dc
:020000040000fa
:0401200000030000d8
:020000040000fa
:0401240000030000d4
:020000040000fa
:0401280000030000d0
:020000040000fa
:04012c0000030000cc
:020000040000fa
:0401300000030000c8
:020000040000fa
:0401340000030000c4
:020000040000fa
:0402080000030000ef
:020000040000fa
:04020c0000030000eb
:020000040000fa
:0402100000030000e7
:020000040000fa
:0402140000030000e3
:020000040000fa
:0402180000030000df
:020000040000fa
:04021c0000030000db
:020000040000fa
:0402200000030000d7
:020000040000fa
:0402240000030000d3
:020000040000fa
:0402280000030000cf
:020000040000fa
:04022c0000030000cb
:020000040000fa
:0402300000030000c7
:020000040000fa
:04023400d0020000f4
:020000040000fa
:0402380000030000bf
:020000040000fa
:04023c0000030000bb
:020000040000fa
:0402400000030000b7
:020000040000fa
:0402440000030000b3
:020000040000fa
:0402480000030000af
:020000040000fa
:04024c0000030000ab
:020000040000fa
:0402500000030000a7
:020000040000fa
:0402540000030000a3
:020000040000fa
:04025800000300009f
:020000040000fa
:04025c00000300009b
:020000040000fa
:040260000003000097
:020000040000fa
:040264000003000093
:020000040000fa
:04026800000300008f
:020000040000fa
:04026c00000300008b
:020000040000fa
:040270000003000087
:020000040000fa
:040274000003000083
:020000040000fa
:04027800000300007f
:020000040000fa
:04027c00000300007b
:020000040000fa
:040280000003000077
:020000040000fa
:040284000003000073
:020000040000fa
:04028800000300006f
:020000040000fa
:04028c00000300006b
:020000040000fa
:040290000003000067
:020000040000fa
:040294000003000063
:020000040000fa
:04029800000300005f
:020000040000fa
:04029c00000300005b
:020000040000fa
:0402a0000003000057
:020000040000fa
:0402a4000003000053
:020000040000fa
:0402a800000300004f
:020000040000fa
:0402ac00000300004b
:020000040000fa
:0402b0000003000047
:020000040000fa
:0402b4000003000043
:020000040000fa
:0402b800000300003f
:020000040000fa
:0402bc00000300003b
:020000040000fa
:0402c0000003000037
:020000040000fa
:0402c4000003000033
:020000040000fa
:0402c800000300002f
:020000040000fa
:0402cc00000300002b
:020000040000fa
:0402d0000003000027
:020000040000fa
:0402d4000003000023
:020000040000fa
:0402d800000300001f
:020000040000fa
:0402dc00000300001b
:020000040000fa
:0402e0000003000017
:020000040000fa
:0402e4000003000013
:020000040000fa
:0402e800000300000f
:020000040000fa
:0402ec00000300000b
:020000040000fa
:0402f0000003000007
:020000040000fa
:0402f4000003000003
:020000040000fa
:0402f80000030000ff
:020000040000fa
:0402fc0000030000fb
:020000040000fa
:0403000000030000f6
:020000040000fa
:0403040000030000f2
:020000040000fa
:0403080000030000ee
:020000040000fa
:04030c0000030000ea
:020000040000fa
:0403100000030000e6
:020000040000fa
:0403140000030000e2
:020000040000fa
:0403180000030000de
:020000040000fa
:04031c0000030000da
:020000040000fa
:0403200000030000d6
:020000040000fa
:0403240000030000d2
:020000040000fa
:0403280000030000ce
:020000040000fa
:04032c0000030000ca
:020000040000fa
:0403300000030000c6
:020000040000fa
:0403340000030000c2
:020000040000fa
:10040000afc921000e7f22000e018800000000000d
:10041000000020000000e000020032000001200087
:100420002002880014000700770007000000e000a9
:1004300003003a00c05723000100200002003700eb
:100440000000200001002000810f70000100320038
:1004500014000700000020000000e000020032004d
:100460000000020000000000b6350200000000009d
:100470000040da000000fe004440a900a002200075
:100480000000e0000300320000002000a00188000e
:100490004440a800000006008a1f78008b1f7800e7
:1004a0000000060091018800800478000000eb0045
:1004b0001a003700e284440032a0b4009905ba0063
:1004c000e284440032a0b4009906ba00e2844400f9
:1004d00032a0b4000006eb00476fde00fd07b2005b
:1004e000636ce10003003a00ebff07000000eb0043
:1004f0000a003700606ce10004003a00005deb0088
:100500008b05e900fdff3e00040037006168e10053
:10051000010032000086eb000b00070019c7ba008b
:100520001905ba000e04e00003003a000a00e000da
:10053000e0ff3a0000000600fe07b2009e018800be
:100540008a047800f5ff3700395dba008b05e900b1
:100550000c003200295dba008b05e900080032006a
:100560000c00e00003003a00e284440032a0b40032
:10057000f5ff370019ddba008b05e900faff3a00f4
:100580008904e800e184440032a0b40000000600c1
:10059000a635040000000000561204000000000010
:1005a0003600f800809fbe00829fbe00849fbe0080
:1005b000869fbe003400f80000002000a0018800e3
:1005c0000000fa008460a900020507000000e000b6
:1005d000030032002c350200000000000000000083
:1005e0000080fa003400f9004f03be004f02be0045
:1005f0004f01be004f00be003600f900004006006b
:100600000040da000000fe000000050080017800d4
:1006100002003700b15978000201e9000200e00051
:10062000fcff3a0000000600889fbe008a9fbe00c3
:10063000800478000200e0005b0032000140780096
:10064000814c780082814400f1f99f00e20f510053
:100650005500360091449800a1449800e1f99f00ac
:10066000d1f99f00e60f51004f003600b1449800c9
:10067000c1f99f00e80f51004b0036000905ea0060
:10068000630565000a8444000a055100c1ff2f007c
:10069000010565000080fb008000eb0012102000c7
:1006a0001310200044000700008cbe000a01440023
:1006b00060b99f0071b99f00e80f55003a003600fd
:1006c00020049800310498004004980051049800d8
:1006d00020b99f0031b99f0040b99f0051b99f00d8
:1006e000f80f55003000360060049800710498003f
:1006f000000c9800110c9800200c9800310c980008
:10070000400c9800510c980020b19f0031b19f001f
:1007100040b19f0051b19f0060b19f0071b19f0037
:1007200000b99f0011b99f00640164007801410085
:1007300002044400020555006011b8000203be0027
:100740000002be000403be006022b8000000720078
:1007500081807200020173008381730010003700f2
:10076000009cbe000294be00400498005104980012
:100770006204980073049800000c9800110c980013
:10078000220c9800330c9800400c9800510c9800f3
:10079000620c9800730c98000a02b1000802b000c5
:1007a000ff0f5500eeff3e00090078004f05be0028
:1007b0004f04be0000000600020ab900001bb90089
:1007c0000200b800810042008100430000000600e2
:020000040000fa
:1007d00011110000222200003333000044440000c5
:1007e0005555000066660000777700008888000095
:1007f00099990000aaaa0000bbbb0000cccc000065
:10080000dddd0000eeee0000cecd0000acab000060
:1008100007000000494400004c45000000000000b3
:040820005400000080
:020000040000fa
:100824000e00fa001007980021079800320798007c
:10083400430798005407980065079800a002200019
:100844003b180700000f78001e0078000000e0004d
:1008540012003200a20220008000eb001e0078008b
:1008640070ff07003e0090000000400030180700b1
:10087400800078001e007800410898001e0078006f
:10088400400890000000e00004003a001e007800d8
:100894005e1807000000eb00000f78001e007800cf
:1008a4000000e000090032008003eb001e03780022
:1008b400ee0290005e029000ce0190003e01900096
:1008c400ae0090001e0090001f0007001e0078007c
:1008d4000080fa00000006001000fa0020079800cb
:1008e400310798004207980053079800640798005e
:1008f40075079800fe0290006e029000de019000e1
:100904004e019000be0090002e009000c4ff07002e
:10091400100798001e0090000000e000050032005f
:100924001e0090006500070010002000000f7800f2
:10093400020037000080eb00000f78001e007800f2
:100944000080fa00000006001400fa002007980056
:1009540031079800420798005307980064079800ed
:1009640075079800060f9800170f98000e0890005e
:10097400c0089000110798001e0090000000e800d5
:100984000000a100100798000e089000c008900015
:100994004e0090000000e90000004000808040000c
:1009a4000e089000710898003e0090000000e000de
:1009b400180032000000eb00000f78000d00370033
:1009c4003e0090001e004000904078000e08900009
:1009d4001e0040007a004000014878003e0090006c
:1009e4001e004000104078000004e00005003200c2
:1009f4001e0fe8001e007800e30f5000f0ff3600e1
:100a040001003700000000000e0890008040eb0059
:100a1400515898006e009000e70f50000200360015
:100a240070002000600798000e089000ee0090000f
:100a3400310898000e089000ee0090000110980014
:100a44000e0890000080e800ad1607000e08900024
:100a54006c004000aa1607000e0890008e08900053
:100a6400410098006e009000e80010000e0890000d
:100a7400610098000e0890008e08900011089800fc
:100a84005e019000ae0090001e0090001717070052
:100a9400800078000e089000010878007e00900025
:100aa4000000e000030032007e0090008e089000f9
:100ab400010878000080fa00000006000400fa0033
:100ac400100798007f170700304080000000e800fe
:100ad40030408800004080000000e00007003a0039
:100ae4009e0090000140880030408000e10f5000db
:100af4000d003a00780607000b00370060408000c4
:100b04000000e00008003a0000408000b0089000b7
:100b14001e00900030089000808f500002003e00bc
:100b24009e00900001408800a04080000000e80082
:100b3400a04088001e009000b00890005040800043
:100b4400808f5000030036001e0090003008900093
:100b5400504088001e009000300890006a00b900e0
:100b64008000780020c221000080400090009000a6
:100b7400010f78001e0090009e007800210098006c
:100b84001e007800a00090001e0090003100980024
:100b94001e007800200090009e0090008180e800f4
:100ba400110098001e0090008080e8001e0078006c
:100bb400210098001e009000300890006a00b900df
:100bc4008000780020c22100808040001e00900038
:100bd400510098001e009000300890006a00b9008f
:100be4008000780020c22100008140001e00900097
:100bf400300890006a00b9008000780020c221000b
:100c040000804000100078000000e800000978002f
:100c140039170700604080000000e000090032003e
:100c240000408000b00890001e0090003008900042
:100c3400808f5000030031002c35020000000000ba
:100c4400000000000080fa00000006000c00fa001a
:100c540040079800510798000000eb00000f78004f
:100c64006802070041408000110798004e00900080
:100c7400900078005e0090000080400020079800fb
:100c84004e009000900078001e009000808f50006d
:100c94000c0036004e009000900078002e0090006a
:100ca400808f500012003600ae0090001e009000ad
:100cb400808f50000e00360010002000000f7800d6
:100cc4000b0037004e009000900078002e0090003a
:100cd400808f500004003e00ae0090001e00900083
:100ce400808f50000200360010002000000f7800b2
:100cf4004e009000ae009000010878001e007800bd
:100d04000000e00005003200ae0090001e009000dc
:100d1400008050008000eb00260b07003f02070014
:100d2400300798003e0090000000e00003003a0005
:100d34002c35020000000000000000001e007800b6
:100d44000080fa00000006000400fa001007980072
:100d54000000eb00000f78001e0090000000e0008f
:100d640006003200270207008000eb001e009000fe
:100d7400100b070029020700000f78001e007800fe
:100d84000000e00003003a002c35020000000000df
:100d9400000000000080fa00000006000e00fa00c7
:100da40050079800610798000000eb00000f7800de
:100db4006e009000e70f5000020036007000200023
:100dc40060079800bf1607005e0090000000e00076
:100dd40002003a0000408000010037005e009000ed
:100de400100798001e0090008010900021079800c2
:100df400ae0090006e009000808f50007b003200a7
:100e0400ee0090002e009000808f50000c00360001
:100e1400004080009e009000808f50000e00320041
:100e240000408000b00890006e009000808f500059
:100e34000900310010002000000f78000600370080
:100e4400004080009e009000808f500002003a0015
:100e540010002000000f78001e009000b0089000e1
:100e6400310798001e009000801090001e00900032
:100e740030089000808f5000050032001e00900062
:100e8400b00890006e009000808f50000300310085
:100e94001e009000ee009000310898001e009000a3
:100ea400ee009000011098001e0090006000900079
:100eb4000000e000040035006e009000e80010001f
:100ec4001e009000610098001e00900050019000e8
:100ed4003e0090006a00b9008000780020c2210022
:100ee40000804000800f51003a003a001e0090003c
:100ef4000080e800d91507001e009000b00890009b
:100f040050408000808f5000030036001e00900087
:100f140030089000504088001e0090003008900077
:100f24006a00b9008000780020c2210000804000df
:100f340090009000410798001e009000ce009000a1
:100f4400210098004e009000a00090001e00900028
:100f5400310098004e009000200090009e00900008
:100f64008180e800110098001e0090008080e80055
:100f74004e009000210098001e0090003008900060
:100f84006a00b9008000780020c2210080804000ff
:100f94001e009000510098001e0090003008900040
:100fa4006a00b9008000780020c22100008140005e
:100fb4001e009000300890006a00b900800078009c
:100fc40020c2210000804000100078000000e800ea
:100fd400000978001e0078000000e00003003200e1
:100fe4002c3502000000000000000000421607003b
:100ff4000080fa00000006000800fa00300798009c
:10100400301607003e0090000000e00002003a00a5
:1010140000408000010037003e0090001007980057
:101024001e0090000080e8008c1507001e00900050
:10103400200890000000e000030032001e00900031
:101044006c004000851507001e0090000080e80039
:101054008000780000c92100301507000000eb0073
:10106400000f78000c0037009e00900082022000e0
:101074001e00410061407800e14f500005003a0035
:101084001e0090001e0040008002b0008040eb0073
:10109400014878001e0fe8001e0078000000e00000
:1010a400f1ff340014160700604080000000e000e7
:1010b4000300320003160700260507000e1607007a
:1010c400004080009e009000808f500010003a0085
:1010d400604080000000e000040032002c35020073
:1010e40000000000000000000900370081e48000d7
:1010f4002107980030408000ae009000808f50009f
:1011040002003a000028ef0001003700fc0207004b
:101114000080fa00000006000800fa00300798007a
:101124000000eb00000f7800be009000210798003b
:101134002e009000d000900000c92100808f500044
:101144001d003a002e009000a008900060c8210005
:10115400808f5000180032002e009000200890006c
:101164000000e00014003a0010002000000f780096
:101174000000eb00100798000c003700ae00900050
:101184001e0090008002b00061407800e14f5000e2
:1011940003003a000000eb00000f7800060037005f
:1011a4001e0090000000e800100798001e00900048
:1011b4000000e000f1ff34001e0078000080fa0017
:1011c400000006000600fa0020079800ae00900018
:1011d400010f7800004080009e007800808f50004e
:1011e400490032001e0078000000e0004600320092
:1011f400b41507001e007800c7ff07000000e000d8
:10120400400032001e80e800141507001e0078001c
:10121400b008900050408000808f500003003600da
:101224001e00780030089000504088001e007800ae
:10123400300890006a00b9008000780020c22100c4
:101244000080400090009000110798001e00780074
:101254009e009000210098001e009000a0009000c5
:101264001e007800310098001e00900020009000bd
:101274009e80e800110098009e80e8001e00900007
:10128400210098001e007800300890006a00b90020
:101294008000780020c22100808040001e00780079
:1012a400510098001e007800300890006a00b900d0
:1012b4008000780020c22100008140001e007800d8
:1012c400300890006a00b9008000780020c2210034
:1012d40000804000100078000000e8000009780059
:1012e40000408000b00890001e0078003008900094
:1012f400808f5000030031002c35020000000000f4
:10130400000000007c1507000080fa0000000600c1
:101314000a00fa00400798000000eb00000f780074
:10132400ce009000110798000000eb002007980001
:101334001e00900078ff07000000e0004d0032001e
:10134400d04080000000e00045003a001e009000fc
:10135400b00890000040800030089000808f50005a
:101364000400360010002000000f78001000200058
:10137400804088001e0090000080e800b714070039
:101384001e009000b008900050408000808f5000f4
:10139400030036001e009000300890005040880082
:1013a4001e009000300890006a00b90080007800a8
:1013b40020c2210000804000900090003107980076
:1013c4001e009000be009000210098003e00900096
:1013d400a00090001e009000310098003e00900094
:1013e400200090009e0090008180e8001100980089
:1013f4001e0090008080e8003e00900021009800cc
:101404001e009000300890006a00b9008000780047
:1014140020c22100808040001e00900051009800ee
:101424001e009000300890006a00b9008000780027
:1014340020c22100008140001e009000300890006e
:101444006a00b9008000780020c2210000804000ba
:10145400100078000000e80000097800050037005b
:101464001e0090006c0040008000780060c82100dd
:101474002a1407001e0078000080fa00000006000d
:101484000c00fa0010002000000f78000000eb00b0
:10149400300798000000eb00200798001100370087
:1014a400a14028002e009000008040009040780069
:1014b400680147002e0090000000410001487800b8
:1014c400e80047002e0090000080400010407800a3
:1014d4000004e000070032002e0090000000e80045
:1014e400200798002e009000e30f5000ecff34001a
:1014f40001003700000000000000eb001007980016
:101504001600370060252100300798001e00900067
:10151400000040008000780080812000808040002e
:1015240068004700810278000002eb008001eb00b4
:1015340032072000800078003e009000e6fc07009f
:10154400000f78001e0078000000e0000700320061
:101554001e0090000000e800100798001e00900094
:101564000000e000e7ff3400010037000000000045
:101574001e0078000080fa00000006000200fa0055
:10158400bfff0700000f78001e007800e10f500035
:101594000d003a0011028000f0f12f00008060007d
:1015a4000050a000100288000000000000000000ad
:1015b4000080eb00b04088001000200060408800ec
:1015c4000828ef0091140700402084000080fa00ee
:1015d400000006000000fa0011028000f0f12f0064
:1015e400008060000050a00010028800000000008d
:1015f400000000000c28ef009b1407000080fa0094
:10160400000006000000fa00d04080000000e8005e
:10161400d04088000080fa00000006000e00fa00a6
:101624000000eb00000f78000000eb0010079800aa
:10163400a41407000000eb0030079800d04080009d
:101644000000e900d0408800d04080000000e000a5
:10165400ae003a00304080000000e000ab003200f1
:101664008100370060e4800030009000000f7800b3
:101674001e007800a0089000410798001e00780022
:10168400700090009e00780081089000210098006e
:101694001e007800000890009e007800f100900081
:1016a400110098004e009000900090001e017800f8
:1016b4006c004100808f500004003a001e00780046
:1016c400800890004e009000110098001e007800e1
:1016d4008000eb00210898004e0090001000780074
:1016e4008000e9004e009000010878001e00780098
:1016f400d0009000510798001e0078002000900050
:101704009e007800b1009000210098001e0078002f
:10171400300090009e007800a10090001100980015
:101724005e009000900090001e80e800808f5000c2
:1017340004003a001e007800b00090005e009000a3
:10174400110098001e0078008000eb005100980002
:101754005e009000100078008000e9005e009000b8
:10176400010878001e007800b00890005040800006
:10177400808f5000030036001e007800300890006f
:10178400504088001e007800300890006a00b900bc
:101794008000780020c221000080400010019000e9
:1017a400620798001e007800ee0090002100980067
:1017b4006e009000a00090001e0078003100980098
:1017c4006e009000200090009e80e80011009800b8
:1017d4009e80e8006e009000210098001e007800b2
:1017e400300890006a00b9008000780020c221000f
:1017f400808040001e007800510098001e00780090
:10180400300890006a00b9008000780020c22100ee
:10181400008140001e007800300890006a00b90082
:101824008000780020c22100008040001000780071
:101834000000e800000978001e007800b00890005d
:101844000040800030089000808f50000600360071
:101854003e00900080004000008120000080400095
:10186400110020000108780030e480000000e0004e
:101874007cff3a001e0078000000e0000100320006
:101884003403070072408000220798002e00900065
:101894000000e000100032004d0007000000e000ee
:1018a400060032003e0090008000400000812000cd
:1018b4000080400011002000010878002e009000f4
:1018c4000000e900200798002e0090000000e000ce
:1018d400f1ff3a000e28ef003e0090008000400027
:1018e4000081200000804000100078000000e0002b
:1018f400060032001000200010079800004080000d
:101904002c3502000000000000000000fa1307005c
:101914001e0090000080fa00000006000200fa0099
:1019240041408000010f78001e0078000080fa001a
:10193400000006000400fa000000eb00000f78002d
:1019440041408000110798001e0090000080fa00ba
:10195400000006000000fa00304080000080fa0019
:10196400000006000400fa00100798001e00900012
:101974000000e00002003a0000408000010037004f
:101984001e009000000f78009e0078007a804000ce
:101994000080fa00000006000400fa001007980016
:1019a40018ff0700c7130700714080001e00900055
:1019b4000080400070408800cf13070017ff070025
:1019c400000f78001e0078000080fa000000060076
:1019d4001000fa000000eb00000f7800d0408000f7
:1019e4000000e000c0003a00404080000000e80031
:1019f400100798009e009000414088001e0090004f
:101a04000000e0000a003a0011408000210798001d
:101a14002040800010408800ae00900021408800e3
:101a2400904080000000e80090408800c902070050
:101a3400b04080009e009000808f500099003900d3
:101a44000100370000000000104080001000780002
:101a54000000e00003003a000080eb00b040880082
:101a6400900037001040800030009000300090005b
:101a7400300798003e0090009000900041079800c5
:101a84009e0090004e009000808f500003003100b3
:101a9400ce009000b1408800820037003e009000e4
:101aa400d0009000510798003e0090002000900064
:101ab400be009000b1009000210098003e0090000c
:101ac40030009000be009000a1009000110098002a
:101ad4005e009000900090003e0090000080e800be
:101ae400808f500004003a003e009000b000900047
:101af4005e009000110098003e0090008000eb0012
:101b0400510098005e009000100078008000e90009
:101b14005e009000010878003e00900020089000cc
:101b24000000e0001f0032003e009000a00890007a
:101b3400610798003e00900070009000be00900085
:101b440081089000210098003e0090000008900059
:101b5400be009000f1009000110098006e0090000b
:101b6400900090003e0090006c004000808f500078
:101b740004003a003e009000800890006e0090003f
:101b8400110098003e0090008000eb0021089800ae
:101b94006e009000100078008000e9006e00900054
:101ba400010878003e009000b0089000504080008a
:101bb400808f5000030036003e00900030089000f3
:101bc400504088003e009000300890006a00b90040
:101bd4008000780020c22100008040009000900026
:101be400710798003e009000fe00900021009800cc
:101bf4007e009000a00090003e009000310098000c
:101c04007e00900020009000be0090008180e800db
:101c1400110098003e0090008080e8007e00900053
:101c2400210098003e009000300890006a00b9003e
:101c34008000780020c22100808040003e00900097
:101c4400510098003e009000300890006a00b900ee
:101c54008000780020c22100008140003e009000f6
:101c6400300890006a00b9008000780020c221008a
:101c740000804000100078000000e80000097800af
:101c84003e009000b00890000040800030089000b2
:101c9400808f50006bff360010002000000f78008a
:101ca40069ff370000408000300890006a00b900e6
:101cb4008000780020c221000080400010007800dd
:101cc400e10f50000200360010002000000f7800e1
:101cd400804080000000e000060032001000200078
:101ce400000f780003003700704080000000e80017
:101cf400704088001e0078000080fa000000060092
:101d04000400fa00d04080000000e000030032002c
:101d14001000200080408800290037001028ef00c0
:101d240051408000010f7800010037001e0fe900c8
:101d34001e0078006a00b9008000780020c22100eb
:101d440000804000100078000000e000f7ff32003f
:101d54001e0078006a00b9008000780020c22100cb
:101d640000804000100798001e00900010009000b2
:101d7400900090001e009000110098001e0090003a
:101d8400900090001e00900064004000808f50007e
:101d940004003a001e009000b00090001e00900065
:101da400110098001e009000100090003000900078
:101db400004088009e007800514088000040800068
:101dc4000080fa00000006000400fa00000f78000a
:101dd40011079800004080006c00400080007800eb
:101de4001e007800eb110700110020001e00900077
:101df400f00607000080fa00000006000800fa0060
:101e040010079800210798003207980000408000ce
:101e1400ae00900001f0a000610098001e00900048
:101e240090009000010f7800004080009e00780030
:101e340071009800004080009e007800a10090008e
:101e4400010898001e0078002000900001408000e6
:101e5400ec8040001100980000408000ec0040003d
:101e64001e00780021009800004080009e00900031
:101e7400210898001e009000100078008000e800ff
:101e84001e00900001087800110020003e00900020
:101e9400c80607000080fa00000006000e00fa00e1
:101ea400600798006e0090003000900030009000b1
:101eb400100798001e009000a008900021079800c9
:101ec4001e009000700090009e0090008108900019
:101ed400210098001e009000000890009e009000d1
:101ee400f1009000110098002e00900090009000e6
:101ef4001e0090006c004000808f500004003a00e7
:101f04001e009000800890002e00900011009800a0
:101f14001e0090008000eb00210898002e00900025
:101f2400100078008000e9002e009000010878007d
:101f3400d04080000000e00057003a001e009000ee
:101f4400d0009000310798001e00900020009000ff
:101f54009e009000b1009000210098001e009000a7
:101f6400300090009e009000a100900011009800a5
:101f74003e009000900090001e0090000080e80059
:101f8400808f500004003a001e009000b0009000c2
:101f94003e009000110098001e0090008000eb00ad
:101fa400510098003e009000100078008000e90085
:101fb4003e009000010878001e009000b0089000d8
:101fc40050408000808f5000030036001e009000b7
:101fd40030089000504088001e00900030089000a7
:101fe4006a00b9008000780020c22100008040000f
:101ff40090009000410798001e009000ce009000d1
:10200400210098004e009000a00090001e00900057
:10201400310098004e009000200090009e00900037
:102024008180e800110098001e0090008080e80084
:102034004e009000210098001e009000300890008f
:102044006a00b9008000780020c22100808040002e
:102054001e009000510098001e009000300890006f
:102064006a00b9008000780020c22100008140008d
:102074001e009000300890006a00b90080007800cb
:1020840020c2210000804000100078000000e80019
:10209400000978001800370041e4800051079800d7
:1020a4001e009000de009000710098005e00900019
:1020b400a00090001e009000010898005e009000af
:1020c400200090009e009000ec80400011009800d9
:1020d4001e009000ec0040005e009000210098007b
:1020e4001e00900061c821002108980030e480009f
:1020f4000000e80030e488001e009000b008900062
:102104000040800030089000808f500005003600a9
:1021140010002000000f780010002000804088008c
:10212400020037000000eb00000f78001e0078006a
:102134000080fa00000006000c00fa004007980036
:10214400510798005e0090008000780001f0a00024
:102154004e009000010878004e009000300090007e
:10216400000f78004e009000c00090001107980006
:102174004e00900010009000ce009000a10090004e
:10218400210098004e00900020009000ce009000a6
:1021940091009000110098001e00900090009000a3
:1021a4004e009000808f500004003a004e009000d2
:1021b400a00090001e009000110098004e009000b6
:1021c4008000eb00410098001e0090001000780091
:1021d4008000e9001e009000010878001e007800cd
:1021e400d0009000210798001e0078002000900085
:1021f4009e007800b1009000210098001e00780035
:10220400300090009e007800a1009000110098001a
:102214002e009000900090001e80e800808f5000f7
:1022240004003a001e007800b00090002e009000d8
:10223400110098001e0078008000eb005100980007
:102244002e009000100078008000e9002e0090001d
:10225400010878001e007800b0089000504080000b
:10226400808f5000030036001e0078003008900074
:10227400504088001e007800300890006a00b900c1
:102284008000780020c2210000804000900090006f
:10229400310798001e007800be00900021009800cd
:1022a4003e009000a00090001e00780031009800cd
:1022b4003e009000200090009e80e80011009800ed
:1022c4009e80e8003e009000210098001e007800e7
:1022d400300890006a00b9008000780020c2210014
:1022e400808040001e007800510098001e00780095
:1022f400300890006a00b9008000780020c22100f4
:10230400008140001e007800300890006a00b90087
:102314008000780020c22100008040001000780076
:102324000000e800000978001e007800b008900062
:102334000040800030089000808f5000020036007a
:1023440010002000804088000080fa000000060091
:102354000200fa00000f78005a1107009140800033
:102364001e00780001087800414080001e007800bb
:1023740011009800601107000080fa0000000600b8
:102384000200fa00000f7800914080001e007800df
:1023940001087800414080001e0078001100980078
:1023a4000080fa00000006000a00fa0030079800d6
:1023b400410798004311070041408000110798002d
:1023c4003e009000100090009e009000008050009d
:1023d400200798004e00900010007800e10f4000a4
:1023e40003003a000000eb00000f780025003700de
:1023f4003e0090009000780090408000808f500054
:102404000b0032003e009000900090001e009000ef
:10241400808f500006003e0010002000000f78005e
:102424004e0090008000eb00010878001500370092
:102434004e009000900078002e009000808f500095
:102444000b0036004e009000900078002e009000a3
:10245400808050004e009000010878003e009000fb
:10246400c7ff07000000eb00000f780005003700ed
:102474004e0090008000eb0001087800100020005e
:10248400000f78001c1107001e0078000080fa007d
:10249400000006000000fa001000200080408800c0
:1024a4000080fa00000006000200fa00000f780025
:1024b40001003700000000002300070010e1800045
:1024c400e10f5000fbff36002c3502000000000035
:1024d40000000000f8ff37000200fa000000eb00e3
:1024e400000f7800070037001e0078006a00b9006a
:1024f4008000780020c2210000804000e70f070020
:102504001e0fe8001e007800e70f5000f6ff3600ab
:1025140020c72100e10f0700c0c72100df0f07001b
:1025240060c82100dd0f070000c92100db0f070090
:1025340020c7210010408800c0c721002040880027
:102544000080fa00000006000000fa000080fa0093
:10255400000006000000fa0010408000100078001f
:102564000000e00003003a000080eb00b040880067
:102574000400370010408000300090001000780004
:10258400b04088000080fa00000006000200fa0053
:1025940001408000010f78001e0078000080fa00de
:1025a400000006000400fa00100798000000eb0089
:1025b400000f78001e0090000000e00002003a00c6
:1025c40001408000010f78001e0078000080fa00ae
:1025d400000006000800fa0030079800be009000d2
:1025e400110798000000eb00000f78003e009000f7
:1025f4000000e000670032001e009000b008900068
:102604000040800030089000808f50005900310055
:102614001e009000600090000000e00005003500fe
:102624000040800030089000e80010001e00900078
:10263400610098001e009000500190001e00900060
:10264400300890006a00b9008000780020c22100a0
:1026540000804000800f51003f003a001e009000af
:102664000080e800fd0f070000408000b0089000e3
:102674001e009000310898001e009000b0089000e1
:1026840050408000808f5000030036001e009000f0
:1026940030089000504088001e00900030089000e0
:1026a4006a00b9008000780020c221000080400048
:1026b40090009000210798001e009000ae0090004a
:1026c400210098002e009000a00090001e009000b1
:1026d400310098002e009000200090009e00900091
:1026e4008180e800110098001e0090008080e800be
:1026f4002e009000210098001e00900030089000e9
:102704006a00b9008000780020c221008080400067
:102714001e009000510098001e00900030089000a8
:102724006a00b9008000780020c2210000814000c6
:102734001e009000300890006a00b9008000780004
:1027440020c2210000804000100078000000e80052
:10275400000978000400370000408000b0089000b1
:102764001e0090003108980010002000000f78002f
:10277400080037001e009000801090000040800088
:1027840030089000808f50000200310010002000bb
:10279400000f78001e0078000080fa000000060098
:1027a4000800fa0030079800be0090001107980056
:1027b4000000eb00000f78003e0090000000e000f5
:1027c400540032001e009000101090008000e900b8
:1027d4001e009000111098001e009000b008900098
:1027e4001e00900000109000808f500049003200bd
:1027f4001e009000101090000000e00045003a0018
:102804001e0090000080e800940f07001e00900056
:10281400801090001e009000310898001e00900067
:1028240030089000e80010001e009000610098003d
:102834001e009000b008900050408000808f50002f
:10284400030036001e0090003008900050408800bd
:102854001e009000300890006a00b90080007800e3
:1028640020c22100008040009000900021079800c1
:102874001e009000ae009000210098002e009000f1
:10288400a00090001e009000310098002e009000df
:10289400200090009e0090008180e80011009800c4
:1028a4001e0090008080e8002e0090002100980017
:1028b4001e009000300890006a00b9008000780083
:1028c40020c22100808040001e009000510098002a
:1028d4001e009000300890006a00b9008000780063
:1028e40020c22100008140001e00900030089000aa
:1028f4006a00b9008000780020c2210000804000f6
:10290400100078000000e8000009780010002000a2
:10291400000f78001e0078000080fa000000060016
:102924000e00fa005007980061079800de0090003e
:102934001107980010002000200798005e00900006
:102944000000e000650032001e009000801090003e
:102954006e009000808f5000030031006e019000e3
:10296400020f7800030037001e00900080109000d2
:10297400010f78001e009000300890009e0f500058
:10298400560032001e009000901090002e0090001f
:10299400808f500051003a001e00900030099000d2
:1029a400320798001e0090009e00780031089800bd
:1029b4001e009000600090000000e000040035005c
:1029c400820020009e0051001e00900061009800cb
:1029d4001e009000500190003e0090006a00b90073
:1029e4008000780020c2210000804000800f510048
:1029f4003a003a001e0090000080e800170f07001c
:102a04001e009000b008900050408000808f50005d
:102a1400030036001e0090003008900050408800eb
:102a24001e009000300890006a00b9008000780011
:102a340020c22100008040009000900041079800cf
:102a44001e0090004e019000220098004e0090005d
:102a5400a00090001e009000310098004e009000ed
:102a6400200090009e0090008180e80011009800f2
:102a74001e0090008080e8004e0090002100980025
:102a84001e009000300890006a00b90080007800b1
:102a940020c22100808040001e0090005100980058
:102aa4001e009000300890006a00b9008000780091
:102ab40020c22100008140001e00900030089000d8
:102ac4006a00b9008000780020c221000080400024
:102ad400100078000000e800000978000080fa0087
:102ae400000006000200fa0000408000e0009000b0
:102af400010f78000040800001408000b108900080
:102b0400e8801000610098001e0078000080fa0040
:102b1400000006000200fa0001408000010f780066
:102b24001e0078000000e000050032001e0078005e
:102b3400101090008000e8001e007800111098002a
:102b44001e0078000080fa00000006000e00fa0063
:102b54004007980051079800620798000000eb00b6
:102b6400000f7800a7fa0700560f07000140800005
:102b74004e009000690040004200dd0000804000eb
:102b84001000be00e00f5000e08f58000b003a0028
:102b9400014080004e009000008040008002b000a0
:102ba40011c0b300014878006e0090000000e000fe
:102bb4000200320010002000000f78004e0f0700c2
:102bc4001e007800e10f500003003a0011002000bd
:102bd4006e0090007703070090fa07001007980032
:102be4001e007800e10f500006003a001e0090001d
:102bf4000000e00003003a002c3502000000000051
:102c0400000000002f0f0700014080004e009000dc
:102c1400690040004200dd00008040001001be0059
:102c240022079800330798002e009000be00900001
:102c3400e00f5000e08f5800150032005e00900055
:102c44000000e00008003200014080004e009000c7
:102c5400690040004200dd00008140006000b800cf
:102c64000089be000a003700034080002e00900057
:102c7400be00900061005000e08058004e019000ba
:102c8400690141004211dd00028141000089be005a
:102c9400014080004e009000008040008002b0009f
:102ca4008040eb0001487800130f07002e009000cd
:102cb400be0090000080fa00000006001400fa0034
:102cc400889fbe008a9fbe00300798004207980084
:102cd400530798006407980075079800010f98003f
:102ce400160f98000000eb001007980045fa070043
:102cf400f40e0700014080003e0090008002b00006
:102d040061407800e24f500023003200044080000c
:102d14003e009000690040004200dd0000004200d7
:102d24001001be004e009000de0090000080ea001a
:102d34008180ea0082027800030178008001780033
:102d440081007800038062008100610081057800c1
:102d5400000578000a00be003e01900069014100b0
:102d64004211dd00020142000089be0001408000e2
:102d74003e009000008040008002b00011c0b3000b
:102d8400014878001e0890000000e00002003200b4
:102d94001000200010079800d70e07001e009000b6
:102da400e10f500003003a00110020001e089000bb
:102db4000003070019fa0700200798001e0090007e
:102dc400e10f500006003a002e0090000000e000e1
:102dd40003003a002c35020000000000000000004f
:102de400b80e07000e0890000000e0000800320052
:102df400014080003e009000690040004200dd0078
:102e0400008040001000be000e0990000089be0042
:102e1400014080003e0090008002b00061407800d4
:102e2400e24f5000030032000000eb00000f780076
:102e34001a003700044080003e0090006900400002
:102e44004200dd00000042001001be006e00900050
:102e5400fe0090000080ea008180ea00820278008f
:102e6400030178008001780081007800038062000b
:102e74008100610081047800000478000800be002d
:102e84003e019000690141004211dd00020142004f
:102e94000089be0010002000000f7800014080006f
:102ea4003e009000008040008002b0008040eb00b3
:102eb40001487800900e07001e0078004f05be0000
:102ec4004f04be000080fa00000006001600fa005d
:102ed400500798006107980072079800030f980044
:102ee400140f9800250f980010002000000f7800a0
:102ef400de00900011079800720e07002e08900063
:102f04000000e000080032009e0090006e00900077
:102f1400690040004200dd00008040001000be0057
:102f24002e0990000089be009e0090006e00900063
:102f34008002b00061417800424798009e009000f2
:102f44006e009000008040008002b00021c0b300f9
:102f5400014878001e089000e20f50001d00320066
:102f6400e20f500005003e000000e0004000320087
:102f7400e10f5000060032003e003700e30f50001e
:102f840023003200e40f50002a00320039003700d9
:102f94009e0090006e009000690040004200dd0039
:102fa400008040001001be007e0090008e0890005a
:102fb40000007100818071009e0190006e019000fc
:102fc400690141004211dd00028141000089be0017
:102fd400280037009e0090006e00900069004000b9
:102fe4004200dd00008040001000be00610040008f
:102ff400e08048009e0190006e019000690141004c
:103004004211dd00028141000089be001900370031
:103014009e0090006e009000690040004200dd00b8
:10302400008040007e0190008e0990000288be005e
:10303400100037004e409000e24f5000090032006b
:103044009e0090006e009000690040004200dd0088
:10305400008040007e0190008e0990000288be002e
:10306400040037000000eb00000f78000100370077
:10307400000000004e409000e14f50005f003a0015
:103084001e009000d0019000330798001e009000ad
:10309400200090009e009000b10090002100980054
:1030a4001e009000300090009e009000a10090004f
:1030b400110098003e009000900090001e009000c7
:1030c4000080e800808f500004003a001e00900049
:1030d400b00090003e009000110098001e00900087
:1030e4008000eb00510098003e0090001000780032
:1030f4008000e9003e009000010878001e00900066
:10310400b008900050408000808f500003003600cb
:103114001e00900030089000504088001e0090006f
:10312400300890006a00b9008000780020c22100b5
:103134000080400090009000410798001e0090001d
:103144004e019000220098004e009000a0009000d4
:103154001e009000310098004e0090002000900066
:103164009e0090008180e800110098001e009000ed
:103174008080e8004e009000210098001e0090001e
:10318400300890006a00b9008000780020c2210055
:10319400808040001e009000510098001e009000a6
:1031a400300890006a00b9008000780020c2210035
:1031b400008140001e009000300890006a00b900b1
:1031c4008000780020c221000080400010007800b8
:1031d4000000e8000009780000408000b00890007a
:1031e4001e00900030089000808f500003003100d2
:1031f4002c3502000000000000000000be0d070096
:103204001e0078000080fa00000006001c00fa008e
:1032140070079800010f9800120f9800230f980070
:10322400340f9800450f9800560f980010002000a6
:10323400000f7800fe009000110798000000eb00da
:10324400200798004e0890000000e00008003200bb
:103254009e0090000e089000690040004200dd00ce
:10326400008040001000be004e0990000089be009e
:103274009e0090000e0890008002b000614178002a
:10328400624798009e0090000e0890000080400065
:103294008002b00021c0b300014878003e089000cd
:1032a400e20f50001d003200e20f500005003e0006
:1032b4000000e00040003200e10f50000600320040
:1032c4003e003700e30f500023003200e40f5000ab
:1032d4002a003200390037009e0090000e0890004a
:1032e400690040004200dd00008040001001be0083
:1032f4001e089000ae0890000000710081807100eb
:103304009e0190000e099000690141004211dd0008
:10331400028141000089be00280037009e00900011
:103324000e089000690040004200dd00008040006b
:103334001000be0061004000e08048009e01900043
:103344000e099000690141004211dd000281410033
:103354000089be00190037009e0090000e089000fe
:10336400690040004200dd00008040001e0990001a
:10337400ae0990000288be00100037006e40900035
:10338400e24f5000090032009e0090000e089000a9
:10339400690040004200dd00008040001e099000ea
:1033a400ae0990000288be00040037000000eb0064
:1033b400000f780001003700000000006e4090000c
:1033c400e14f500080003a00d04080000000e0004f
:1033d40057003a001e009000d00190004307980067
:1033e4001e009000200090009e009000b10090000c
:1033f400210098001e009000300090009e00900074
:10340400a1009000110098004e00900090009000e0
:103414001e0090000080e800808f500004003a00f5
:103424001e009000b00090004e0090001100980023
:103434001e0090008000eb00510098004e009000a8
:10344400100078008000e9004e0090000108780028
:103454001e009000b008900050408000808f500003
:10346400030036001e009000300890005040880091
:103474001e009000300890006a00b90080007800b7
:1034840020c2210000804000900090005107980065
:103494001e0090005e019000220098005e009000e3
:1034a400a00090001e009000310098005e00900083
:1034b400200090009e0090008180e8001100980098
:1034c4001e0090008080e8005e00900021009800bb
:1034d4001e009000300890006a00b9008000780057
:1034e40020c22100808040001e00900051009800fe
:1034f4001e009000300890006a00b9008000780037
:1035040020c22100008140001e009000300890007d
:103514006a00b9008000780020c2210000804000c9
:10352400100078000000e800000978001800370057
:1035340043e48000630798001e009000ee009000b2
:10354400710098006e009000a00090001e00900092
:10355400010898006e009000200090009e009000ea
:10356400ec804000110098001e009000ec00400028
:103574006e009000210098001e00900061c8210098
:103584002108980030e480000000e80030e488005e
:103594001e009000b00890000040800030089000a9
:1035a400808f5000080036005e0890000000e000a4
:1035b400030032005e08900011002000010878002a
:1035c40010002000804088001e0078000080fa006f
:1035d400000006001200fa006007980071079800c6
:1035e400020f9800ee009000010f78000000eb003d
:1035f400100798009e0078007e0090008002b000c2
:1036040061417800424798009e0078007e00900057
:10361400008040008002b00021c0b300014878005f
:103624009e0078007e009000690040004200dd00aa
:10363400008040001000be0061004000e0804800af
:103644009e0178007e019000690141004211dd0075
:10365400028141000089be004e409000e14f5000bd
:103664007d003a00d04080000000e00054003a00a1
:103674001e007800d0009000310798001e007800ea
:10368400200090009e007800b10090002100980076
:103694001e007800300090009e007800a100900089
:1036a400110098003e009000900090001e80e800f9
:1036b400808f500004003a001e007800b000900093
:1036c4003e009000110098001e0078008000eb007e
:1036d400510098003e009000100078008000e9003e
:1036e4003e009000010878001e007800b0089000a9
:1036f40050408000808f5000030036001e00780088
:1037040030089000504088001e0078003008900077
:103714006a00b9008000780020c2210000804000c7
:1037240010019000420798001e007800ce0090001f
:10373400210098004e009000a00090001e00780028
:10374400310098004e009000200090009e80e80018
:10375400110098009e80e8004e009000210098001f
:103764001e007800300890006a00b90080007800dc
:1037740020c22100808040001e0078005100980083
:103784001e007800300890006a00b90080007800bc
:1037940020c22100008140001e0078003008900003
:1037a4006a00b9008000780020c221000080400037
:1037b400100078000000e8000009780018003700c5
:1037c40042e48000520798001e007800de0090005a
:1037d400710098005e009000a00090001e00780028
:1037e400010898005e009000200090001e017800ff
:1037f400ec004100110098001e017800ec0041002b
:103804005e009000210098001e00780061c821002d
:103814002108980030e480000000e80030e48800cb
:103824001e007800b008900000408000300890002e
:10383400808f5000080036000e0890000000e00061
:10384400030032000e0890001100200001087800e7
:1038540010002000804088000080fa00000006006c
:103864000800fa0020079800310798002e00900005
:103874000000e00002003a00004080000100370030
:103884002e009000100798000e0c07009e00900078
:103894003e0090008002b00061407800e24f50008a
:1038a40009003a009e0090003e0090000080400015
:1038b4008002b0008040eb00014878001000200036
:1038c400000f7800020037000000eb00000f7800c2
:1038d400090c07001e0078000080fa0000000600b2
:1038e4000e00fa00889fbe00300798004107980038
:1038f40052079800630798003e0090000000e00023
:1039040002003a0000408000010037003e009000b1
:10391400000f7800eb0b07009e0078004e0090002b
:10392400690040004200dd00008040001001be003c
:1039340012079800230798009e0078004e0090001c
:10394400690040004200dd00008040001001be001c
:103954005e009000ee0090000080ea008180ea00a2
:103964000202780003017800800178008100780069
:103974000300620081006100810478000004780083
:103984000800be009e0178004e01900069014100cc
:103994004211dd00028141000089be00d60b070000
:1039a4001e009000ae0090004f04be000080fa009c
:1039b400000006000e00fa00500798006107980006
:1039c40041408000010f78001140800011079800e9
:1039d4002140800021079800004080000080e8001a
:1039e4001e0b07005e009000e10f40001c003a002f
:1039f4006e0090000000e0001900320091e48000a5
:103a04003107980000408000be009000210098001b
:103a140000408000be009000a1009000310098009a
:103a24003e00900020009000014080008180e8006a
:103a340011009800004080008080e8003e00900063
:103a4400210098000040800001c921005100980025
:103a540080e480000000e80080e488001a00370059
:103a64005e0090001e004000400798000040800067
:103a7400ce009000110098004e0090009e0f500060
:103a840006003100004080000080e80080007800db
:103a94002e009000bf0a07000b0037000040800092
:103aa4000080e800800078001e009000b90a07003a
:103ab400b0408000ce009000808f500002003100a2
:103ac400ce009000b14088000080fa00000006009b
:103ad4000200fa000028ef000628ef000828ef0093
:103ae4000a28ef000c28ef000e28ef000000eb007e
:103af400000f7800070037001e00780080004000a7
:103b040000812000008040008000eb000108780064
:103b14001e0fe8001e0078000000e000f6ff3400ed
:103b24001228ef001428ef001628ef001a28ef00df
:103b34000080fa00000006000800fa002007980040
:103b44003107980010002000000f7800ae009000ac
:103b5400110798001e0090000000e0004c003200a5
:103b64001e009000700890000000e0004800320041
:103b74001e009000700890008080eb000001780027
:103b8400110009008280d800800078001e00900097
:103b940000109000808f50003d003900490b070051
:103ba4001e009000100178001e009000f0089000a4
:103bb4001e009000001090000088b90000007800fa
:103bc400800041001e009000210098001e0090001b
:103bd4008000eb00610898001e00900090007800bf
:103be4001e009000110098001e0090001001780043
:103bf4001e009000700890008000e9001e009000f4
:103c0400001090000088b900000078008000410096
:103c14001e009000310098001e00900080c0eb0050
:103c2400216098001e00900080c0eb003160980075
:103c34003e0090000000e0000d003a001e009000dd
:103c4400400090000000e0000f0032001e009000d1
:103c54006800400091f807000000e0000a0032000c
:103c64002c350200000000000000000006003700b0
:103c74001e00900068004000080a07001e00900023
:103c840072004000050a07001b0b07000200370002
:103c94000000eb00000f78001e0078000080fa009e
:103ca400000006000c00fa00300798004107980055
:103cb400224f98000000eb00000f78003e009000b7
:103cc4000000e000270032008080eb003e009000fe
:103cd40000017800110009008280d800800078007b
:103ce4004e009000808f50001e003900be009000ee
:103cf4004e0090000088b90080007800b0fd2f00cd
:103d0400808f500017003e00be0090004e009000cf
:103d14000088b90000007800100798001e00900089
:103d24004002b000020b0700000f78001e0078006c
:103d34000000e0000b0032009e007800210798008c
:103d44002e0090004002b000200798001e02780068
:103d5400ae4990002e019000ce0090003e009000ed
:103d6400030007001e0078000080fa00000006002f
:103d74000a00fa00000f7800110798002207980043
:103d840063479800440798001e0090000000e0007c
:103d940004003a00ce0090004e0090000108780024
:103da40003003700ae0090004e0090000108780038
:103db4004e0090009e007800710898004e0090001c
:103dc4009e00900001109800110020004e00900009
:103dd40059ff07000080fa00000006000200fa0004
:103de400000f78001e0078000000e0000e00320092
:103df4001e0078008000eb00210098001e0078006f
:103e04008000eb00010878001e0078008000eb00c1
:103e1400310098008001eb000001eb008000eb0012
:103e24001e0078002c0007000080fa000000060045
:103e34000800fa006047980010002000000f780086
:103e44000000eb00100798006e4190009e00900067
:103e54001e00780093ff0700200798002e009000b2
:103e6400deff07002e0090000080fa00000006002c
:103e74000600fa0010079800210798000000eb00e4
:103e8400000f78001e0090000000e0000f003200d8
:103e9400ae0090001e009000808f50000b003e008a
:103ea40022c0b3008000eb001e0090007dff0700dd
:103eb400000f78001e0078000000e00003003200cc
:103ec4001e007800ae009000610898001e00780083
:103ed4000080fa00000006001200fa005007980063
:103ee4006107980072079800030f98000000eb0028
:103ef400000f7800de0090001107980001003700e1
:103f0400000000006f0a07001e009000e008900007
:103f14001e00900070089000808f5000030039004c
:103f24000e089000e20f50001b003a000e099000aa
:103f3400ee0090001e009000d902070020079800b0
:103f44001e009000100890000000e00009003200fc
:103f54001e00900072004000d0f707000000e0004f
:103f64000a0032002c3502000000000000000000ae
:103f7400060037002e0090000000e000030032002d
:103f84002c35020000000000000000005a0a07005f
:103f9400100020003d0037007e0090000000e0008b
:103fa40003003a00540a07000000eb003700370012
:103fb4001e0078000000e00004003a00660047009c
:103fc400eff8070010002000000f78004a0a0700ed
:103fd4008cf507003b0a07001e009000206090004b
:103fe400e14f400003003a001e0090008040eb00c7
:103ff400216098001e00900030609000e14f400066
:1040040003003a001e0090008040eb0031609800ed
:10401400390a0700ee00470066004700e2f807008f
:104024000000e00015003a001e009000780307002d
:104034000000e0000d003200fe0090001e00900021
:104044006800400060f707001e0090001803070096
:1040540072f507000000e000a9ff3a002c350200c9
:104064000000000000000000a6ff37001e009000c2
:104074000f03070069f50700a2ff37001e00900038
:104084000b03070065f507000000eb000080fa0051
:10409400000006001400fa006007980071079800f9
:1040a400020f9800130f9800ee009000110798007b
:1040b4000000eb00200798001e009000e00890002c
:1040c4001e00900070089000808f5000030039009b
:1040d4001e089000e20f50002c003a001e009000d1
:1040e400b0609000614798001e009000e0089000c6
:1040f400410798001e099000fe0090001e009000e9
:10410400670207006e409000e14f400010003a0043
:104114001e009000100890000000e000180032001b
:104124001e009000720040005cf707000000e000f1
:10413400130032000e0890000000e000100032006e
:104144000e08900011002000010878000c003700d0
:1041540000f60700500798006e4090008000fb00b6
:104164005e009000808f5000050031006e4090008a
:104174000040e800804078001e0090003160980004
:1041840010002000000f7800020037000000eb0050
:10419400000f78001e0078000080fa00000006007e
:1041a4001000fa006007980071079800ee00900074
:1041b400110798000000eb00200798001e009000f3
:1041c400e0089000310798001e009000f00890006d
:1041d4003e009000808f5000290036001e009000a1
:1041e400b0609000014f98003e0090008000e8000d
:1041f4001e009000610898000e489000e14f4000b6
:1042040010003a001e009000100890000000e0002a
:10421400180032001e009000720040001ff70700d3
:104224000000e000130032007e0090000000e00077
:10423400100032007e009000110020000108780078
:104244000c003700c3f50700500798000e48900093
:104254008000fb005e009000808f5000050031005c
:104264000e4890000040e800804078001e00900056
:104274003160980010002000000f78000200370021
:104284000000eb00000f78001e0078000080fa00a8
:10429400000006001000fa0050079800610798001b
:1042a400720798000000eb00000f7800de00900019
:1042b40011079800030037000000000001003700d8
:1042c400000000007f0907001e009000e008900035
:1042d400210798002e0090000000e0001600320034
:1042e400ee0090001e0090004f0207002e00900088
:1042f4008000e9001e009000610898001e009000f4
:10430400400090000000e000080032001e00900011
:1043140068004000e1f607000000e00003003200fe
:104324002c350200000000000000000072090700a4
:1043340010002000410037007e0090000000e000e3
:1043440003003a006c0907000000eb003b00370053
:104354001e0078000000e00004003a0066004700f8
:1043640007f8070010002000000f7800620907001a
:10437400a4f40700530907001e0090002060900079
:10438400e14f400003003a001e0090008040eb0023
:10439400216098001e00900030609000e14f4000c2
:1043a40003003a001e0090008040eb00316098004a
:1043b40051090700ee00470066004700faf70700be
:1043c4000000e00015003a001e0090007002070093
:1043d4000000e0000d003200fe0090001e0090007e
:1043e4007200400078f607001e00900030020700bb
:1043f4008af407000000e000afff3a002c35020009
:104404000000000000000000aeff37001e00900016
:104414002702070081f40700aaff37001e0090005e
:10442400230207007df407001e00900058020700d5
:104434000000e000a2ff32000000eb000080fa0060
:10444400000006001200fa0070079800010f98009f
:104454000000eb00000f7800fe0090002107980098
:104464000000eb0010079800030037000000000074
:104474000100370000000000120907002e00900020
:10448400e0089000310798003e0090000000e00032
:104494001a0032003e0090008000e9002e009000d7
:1044a400610898002e009000100078000000e000e1
:1044b40003003a0097f90700ae009000a0009800ae
:1044c4002e009000400090000000e0000800320040
:1044d4002e0090006800400070f607000000e00025
:1044e400030032002c350200000000000000000030
:1044f4000109070010002000570037000e08900043
:104504000000e00003003a00fb0807000000eb0095
:10451400510037001e0078000000e00004003a005b
:104524006a00470096f7070010002000000f78008b
:10453400f108070033f40700e20807002e0090009a
:1045440020609000e14f400003003a002e009000ec
:104554008040eb00216098002e00900030609000b5
:10456400e14f400003003a002e0090008040eb0031
:1045740031609800e0080700f00047006a00470037
:1045840089f707000000e0001f003a002e009000a9
:10459400ff0107000000e000170032002e00900029
:1045a400100078000000e00006003a00c50807008b
:1045b4002e0090002000900006f8070010079800d5
:1045c400cd0807008e0890002e0090007200400075
:1045d400fdf507002e009000b50107000ff4070059
:1045e4000000e000a1ff3a002c35020000000000aa
:1045f40000000000a0ff37002e009000ac0107006f
:1046040006f407009cff37002e009000a801070065
:1046140002f407002e009000dd0107000000e00016
:1046240094ff32001e0090000000e00009003200f8
:10463400a40807002e009000090107004007980015
:104644002e00900020009000ce009000b4f80700e7
:10465400a90807000000eb000080fa000000060033
:104664001200fa006007980071079800020f980082
:104674000000eb00000f7800ee0090001107980096
:1046840003003700000000000100370000000000b4
:104694008c0807001e009000e00890002107980095
:1046a4002e0090000000e000180032001e00900070
:1046b400b000900031079800fe0090001e009000aa
:1046c400590107001e009000be00900031009800c0
:1046d4001e009000100890000000e0000800320066
:1046e4001e00900072004000ecf507000000e0009e
:1046f400030032002c35020000000000000000001e
:104704007d08070010002000410037000e089000cb
:104714000000e00003003a00770807000000eb0007
:104724003b0037001e0078000000e00004003a005f
:104734006800470012f7070010002000000f7800ff
:104744006d080700aff307005e0807001e00900025
:1047540020609000e14f400003003a001e009000ea
:104764008040eb00216098001e00900030609000b3
:10477400e14f400003003a001e0090008040eb002f
:10478400316098005c080700f000470068004700ab
:1047940005f707000000e00015003a001e00900035
:1047a4007b0107000000e0000d0032008e0890003d
:1047b4001e0090007200400083f507001e00900068
:1047c4003b01070095f307000000e000adff3a004d
:1047d4002c3502000000000000000000acff370090
:1047e4001e009000320107008cf30700a8ff370079
:1047f4001e0090002e01070088f307001e009000a1
:10480400630107000000e000a0ff32000000eb009d
:104814000080fa00000006001200fa006007980009
:1048240071079800020f9800ee009000110798009d
:104834000000eb00200798001e009000e0089000a4
:10484400310798003e0090000000e0002c00320088
:104854001e009000a0609000014f9800fe009000a0
:104864001e009000f00007003e0090008000e90068
:104874001e009000610898000e489000e14f40002f
:1048840010003a001e009000400090000000e0007c
:10489400180032001e009000680040007ff50700f9
:1048a4000000e000130032000e0890000000e00059
:1048b400100032000e08900011002000010878005a
:1048c4000c00370023f40700500798000e489000ae
:1048d4008000fb005e009000808f500005003100d6
:1048e4000e4890000040e800804078001e009000d0
:1048f4002160980010002000000f780002003700ab
:104904000000eb00000f78001e0078000080fa0021
:10491400000006000c00fa004007980051079800b8
:10492400ce009000110798000000eb0020079800cb
:104934001e009000600890000000e0000c003200af
:104944001e009000b000900031079800de00900037
:104954001e009000b40007001e009000be009000ee
:104964003100980010002000000f7800020037008a
:104974000000eb00000f78001e0078000080fa00b1
:10498400000006000400fa0010079800cd07070095
:104994001e009000e0089000010f7800d607070081
:1049a4001e0078000080fa00000006000600fa00ed
:1049b40020079800ae009000010f7800c10707009f
:1049c4001e007800f00890001e0078006008900037
:1049d4000080500010079800c70707001e009000d1
:1049e4000080fa00000006000600fa002007980084
:1049f400ae009000010f78001e007800e0089000df
:104a0400110798001e0090000080fa0000000600c4
:104a14000400fa00100798009e009000010f78002f
:104a24001e007800f90707000080fa000000060065
:104a34000200fa00000f78001e00780000109000b9
:104a44000080fa00000006000200fa00000f78005f
:104a54001e007800700890000080fa000000060034
:104a64000400fa00100798001e009000100890003f
:104a74000000e000050032001e0090004008900095
:104a840010007800680f1000020037000000eb00ef
:104a9400000f78001e0078000080fa000000060075
:104aa4000a00fa002007980031079800420798008e
:104ab4000000eb00000f78002e009000e00890004a
:104ac400110798002e009000001090000000e000f4
:104ad4000c003a002e009000100078000000e00066
:104ae4004a003a002e009000200090002cf70700a6
:104af400000f78002e0090008000eb002100980049
:104b0400420037004e0090000000e00019003a0017
:104b14002e009000801090002e0090001000900055
:104b240001017800be009000b7ee07002e0090004f
:104b3400900090002e0090000010900080804000b3
:104b44002e009000110098002e009000900090001c
:104b54002e00900020009000808f50002b00390020
:104b64002e009000900078002e0090001100980014
:104b7400260037002e009000801090002e00900038
:104b84003000900001017800be0090009eee070006
:104b94002e009000b00090002e00900000109000b5
:104ba4000000ea00808040002e0090003100980050
:104bb4002e009000b00090002e00900010007800ad
:104bc400808f5000080031002e009000a00090005b
:104bd4002e009000001090000000ea008080400049
:104be4002e009000310098004e009000e20f50001b
:104bf40006003a001e0090000000e00003003200ae
:104c04001e0090000000e900100798001e009000ac
:104c14008000e8002e009000610898001e007800d3
:104c24000080fa00000006000400fa00000f78007b
:104c3400110798001e007800001090000000e000aa
:104c4400190032001e007800b00090001e007800a9
:104c540000109000808040001e0078003100980011
:104c64001e007800b00090001e0078002000900024
:104c7400808f5000040039001e00780090007800f6
:104c84001e007800310098001e007800801090000b
:104c94001e00780030009000010178008000780048
:104ca4001e00900058ee07000080fa000000060085
:104cb4000400fa0010079800020707001e00900085
:104cc400b0609000014f78000b0037001e00900088
:104cd400100890000000e0000b0032001e0090005d
:104ce400720040006df407000000e0000100320093
:104cf400e8f507001e4fe9001e4078000004e000bc
:104d0400f2ff3c0001003700000000001e0090008c
:104d140080c0eb0031609800f7060700e906070041
:104d24001e009000a0609000114798000d0037000d
:104d34001e009000400090000000e0000d003200d2
:104d44001e0090006800400054f407000000e000da
:104d540001003200cff507001e4090000040e9003a
:104d6400104798001e4090000004e000f0ff3c0053
:104d740001003700000000001e00900080c0eb001e
:104d840021609800dc0607000080fa00000006009d
:104d94000400fa0010079800ca0607001e009000dd
:104da400600890000000e00003003a0010002000ba
:104db400000f7800020037000000eb00000f7800bd
:104dc400cd0607001e0078000080fa0000000600ef
:104dd4000600fa0020079800ae0090001107980022
:104de4001e009000600890000000e00003003a00fc
:104df40010002000000f7800020037000000eb00d4
:104e0400000f78001e0078000080fa000000060001
:104e14000400fa0010079800aa0607001e0090007c
:104e2400e00890001e00900070089000808f5000f1
:104e340003003a0010002000000f78000200370041
:104e44000000eb00000f7800ab0607001e0078009e
:104e54000080fa00000006000600fa00200798000f
:104e6400ae009000110798001e009000e00890002a
:104e74001e00900070089000808f500003003a00dc
:104e840010002000000f7800020037000000eb0043
:104e9400000f78001e0078000080fa000000060071
:104ea4000e00fa0020079800310798004207980086
:104eb40053079800640798004e009000e10f5000db
:104ec40003003a0010c0b3002047980008003700e0
:104ed4004e009000e20f500003003a0040c0b300bf
:104ee40020479800020037000040eb00204798005c
:104ef4003e0090000000e00002003a001000200094
:104f0400300798002e009000f30040002e0090001f
:104f1400808f5000080036002e0090000000e8004a
:104f2400200798002e0090007200400080060700c1
:104f3400000f7800020037000000eb00000f78003b
:104f44001e0078000000e000090032001e00780016
:104f5400f20040001e0078006e039000de02900014
:104f64002e429000be0190002e01900077030700ae
:104f74001e0078000080fa00000006000400fa0019
:104f8400100798009e009000010f78001e00780022
:104f9400604890000080fb00620060000000e000b8
:104fa40003003a001e00780098060700040037004a
:104fb400220120008000eb001e00780099ed07001c
:104fc4000080fa00000006000a00fa00400798007a
:104fd400ce009000110798000000eb00000f78004d
:104fe4000000eb00200798000000eb003007980059
:104ff400340607001e009000400090000000e0000e
:1050040016003a001e009000500090000000e000de
:1050140012003a001e009000e04990001e0090002b
:10502400300190001e009000a00090001e0090002f
:10503400600090003e039000ae02900003427800ae
:105044008201780001017800800078001e00900041
:105054003e03070010002000000f7800260607001a
:105064001e0078000080fa00000006000c00fa0020
:1050740050079800de009000110798000000eb0034
:10508400000f78000000eb00200798000000eb0000
:10509400300798000000eb00400798001e009000c5
:1050a400400090000000e00016003a001e0090004e
:1050b400500090000000e00012003a001e00900032
:1050c400e04990001e009000300190001e00900006
:1050d400a00090001e009000600090003e0390002d
:1050e400ae0290000342780082017800010178004a
:1050f400800078001e0090001403070010002000b8
:10510400000f78001e0078000080fa0000000600fe
:105114000800fa002007980031079800ae009000bc
:10512400110798003e0090000000e00002003a00e1
:1051340010002000300798001e009000a00090008e
:105144003e009000808f5000060036001e00900044
:10515400be0090003100980010002000000f78007d
:10516400020037000000eb00000f78001e007800fa
:105174000080fa00000006000800fa0030079800da
:10518400be009000110798001e0090009000780067
:10519400210798001e009000a00090001e009000bf
:1051a40010007800008f40001e0090001000900056
:1051b4001e0f10001e009000900078002e0090003a
:1051c400808f5000f0ff3a001e0fe9001e0090008f
:1051d400200090009e0f500003003e001e0090002f
:1051e400200090001e0f10001e0078000080fa00be
:1051f400000006000600fa0020079800ae009000a8
:10520400010f78001e007800bc0207001007980008
:105214001e0090000080fa00000006001600fa004c
:1052240070079800010f9800120f9800230f980040
:10523400fe009000210798000000eb00000f7800aa
:105244009e089000110798000000eb0030079800ba
:105254002e009000200090000000e9003007980024
:105264002e009000604890000080fb006100600008
:10527400004078000004e0000a0032001e009000a4
:105284000080e800100798009e0090003e00900007
:10529400808f5000090036000000eb00200f9800ba
:1052a400060037009e0090003e009000808f500062
:1052b40002003600be009000110798002e089000ee
:1052c4000000e000260032006a00470020f40700d6
:1052d4007c0507002e009000a7ff0700000f780050
:1052e4001e0090009e007800808f50001a0031004c
:1052f4002e00900000089000800078000000eb0071
:1053040057f90700a1f40700ae009000d000980000
:1053140079050700ae0890002e0090000008900068
:10532400010378008000eb006022b8006011b8002f
:1053340062f607002e0090008000eb0051009800f8
:10534400f40047006a00470017f407000000e0007b
:10535400dfff32000200370067050700000000008d
:105364001e0078000000e00003003a002e009000c8
:1053740081ff0700000f78001e0290009e01780054
:105384001e0990008e0890002e0090005700070020
:10539400400798004e0090000000e0001700320023
:1053a4002e00900055020700ae009000b10090005e
:1053b400810f50001100390092f007002e00900078
:1053c400400090000000e0000b0032002e0090002e
:1053d400800890002e009000400090008002eb00b6
:1053e4000002eb006011b800b8f607002e00900030
:1053f4008000eb004100980088f007004e00900008
:105404000080fa00000006001200fa00500798001d
:105414006107980072079800030f9800de0090005f
:1054240011079800fe009000010f78001e00900004
:10543400604890000080fb0061006000004078003c
:105444000004e000010032001e8fe8001e009000fe
:1054540049ff0700200798001e027800ae01900063
:105464007e019000ee0090001e0090001f000700d7
:10547400300798003e0090000000e0001800320061
:105484001e0090001d0207009e009000b1009000d5
:10549400810f5000120039000000eb004007980013
:1054a4001e009000400090000000e0000c0032005c
:1054b4001e009000800890001e00900040009000a4
:1054c4000e0b90008002eb000002eb006011b800ac
:1054d4004ef707001e0090008000eb00410098008a
:1054e4003e0090000080fa00000006000e00fa0062
:1054f4002007980031079800420798005307980046
:10550400640798002e00900090009000010f78002e
:105514002e009000604890000080fb006100600055
:10552400004078000004e00011003200ce0090003a
:1055340011079800de0090006e009000808f5000ec
:10554400080039000e80e8009e0178002200200047
:10555400800078002e00900087010700000f78007b
:10556400090037000000eb004007980006003700f0
:10557400ce0090005e009000810f500001003600c4
:1055840001007800400798004e0090000000e00001
:10559400080032003e0090009e0178004e01900009
:1055a400800078002e00900073010700ae00900088
:1055b400900098004e0090000080fa000000060061
:1055c4001000fa00400798005107980062079800fd
:1055d40073079800ce009000310798000000eb009c
:1055e400000f78003e009000604890000080fb00af
:1055f40061006000004078000004e0000300320015
:1056040020002000200798000c0037003e00900086
:10561400604890000080fb00640060000000e0002f
:10562400040032003e009000b00090002107980072
:10563400020037000000eb00200798007e00900075
:105644000000e000230032009e0407003e009000aa
:10565400aa010700100798009e0090002e009000f9
:10566400808f500008003e003e009000000890002b
:10567400800078000000eb0079f80700c3f307000e
:10568400be009000c00098009b0407009e0090009c
:105694002e009000808f500011003e003e009000cc
:1056a400000890007e0390008000eb006022b800a8
:1056b4006011b80081f507003e0090008000eb0007
:1056c400410098003e0090008c01070010079800ec
:1056d400030037003e00900088010700100798007f
:1056e4009e0090002e009000808f50001a0036001b
