:020000040000fa
:080000000002040000000000f2
:020000040000fa
:0400080008030000e9
:020000040000fa
:04000c0008030000e5
:020000040000fa
:0400100008030000e1
:020000040000fa
:0400140008030000dd
:020000040000fa
:0400180008030000d9
:020000040000fa
:04001c0008030000d5
:020000040000fa
:0400200008030000d1
:020000040000fa
:0400240008030000cd
:020000040000fa
:0400280008030000c9
:020000040000fa
:04002c0008030000c5
:020000040000fa
:0400300008030000c1
:020000040000fa
:04003400d8020000ee
:020000040000fa
:0400380008030000b9
:020000040000fa
:04003c0008030000b5
:020000040000fa
:0400400008030000b1
:020000040000fa
:0400440008030000ad
:020000040000fa
:0400480008030000a9
:020000040000fa
:04004c0008030000a5
:020000040000fa
:0400500008030000a1
:020000040000fa
:04005400080300009d
:020000040000fa
:040058000803000099
:020000040000fa
:04005c000803000095
:020000040000fa
:040060000803000091
:020000040000fa
:04006400080300008d
:020000040000fa
:040068000803000089
:020000040000fa
:04006c000803000085
:020000040000fa
:040070000803000081
:020000040000fa
:04007400080300007d
:020000040000fa
:040078000803000079
:020000040000fa
:04007c000803000075
:020000040000fa
:040080000803000071
:020000040000fa
:04008400080300006d
:020000040000fa
:040088000803000069
:020000040000fa
:04008c000803000065
:020000040000fa
:040090000803000061
:020000040000fa
:04009400080300005d
:020000040000fa
:040098000803000059
:020000040000fa
:04009c000803000055
:020000040000fa
:0400a0000803000051
:020000040000fa
:0400a400080300004d
:020000040000fa
:0400a8000803000049
:020000040000fa
:0400ac000803000045
:020000040000fa
:0400b0000803000041
:020000040000fa
:0400b400080300003d
:020000040000fa
:0400b8000803000039
:020000040000fa
:0400bc000803000035
:020000040000fa
:0400c0000803000031
:020000040000fa
:0400c400080300002d
:020000040000fa
:0400c8000803000029
:020000040000fa
:0400cc000803000025
:020000040000fa
:0400d0000803000021
:020000040000fa
:0400d400080300001d
:020000040000fa
:0400d8000803000019
:020000040000fa
:0400dc000803000015
:020000040000fa
:0400e0000803000011
:020000040000fa
:0400e400080300000d
:020000040000fa
:0400e8000803000009
:020000040000fa
:0400ec000803000005
:020000040000fa
:0400f0000803000001
:020000040000fa
:0400f40008030000fd
:020000040000fa
:0400f80008030000f9
:020000040000fa
:0400fc0008030000f5
:020000040000fa
:0401000008030000f0
:020000040000fa
:0401040008030000ec
:020000040000fa
:0401080008030000e8
:020000040000fa
:04010c0008030000e4
:020000040000fa
:0401100008030000e0
:020000040000fa
:0401140008030000dc
:020000040000fa
:0401180008030000d8
:020000040000fa
:04011c0008030000d4
:020000040000fa
:0401200008030000d0
:020000040000fa
:0401240008030000cc
:020000040000fa
:0401280008030000c8
:020000040000fa
:04012c0008030000c4
:020000040000fa
:0401300008030000c0
:020000040000fa
:0401340008030000bc
:020000040000fa
:0402080008030000e7
:020000040000fa
:04020c0008030000e3
:020000040000fa
:0402100008030000df
:020000040000fa
:0402140008030000db
:020000040000fa
:0402180008030000d7
:020000040000fa
:04021c0008030000d3
:020000040000fa
:0402200008030000cf
:020000040000fa
:0402240008030000cb
:020000040000fa
:0402280008030000c7
:020000040000fa
:04022c0008030000c3
:020000040000fa
:0402300008030000bf
:020000040000fa
:04023400d8020000ec
:020000040000fa
:0402380008030000b7
:020000040000fa
:04023c0008030000b3
:020000040000fa
:0402400008030000af
:020000040000fa
:0402440008030000ab
:020000040000fa
:0402480008030000a7
:020000040000fa
:04024c0008030000a3
:020000040000fa
:04025000080300009f
:020000040000fa
:04025400080300009b
:020000040000fa
:040258000803000097
:020000040000fa
:04025c000803000093
:020000040000fa
:04026000080300008f
:020000040000fa
:04026400080300008b
:020000040000fa
:040268000803000087
:020000040000fa
:04026c000803000083
:020000040000fa
:04027000080300007f
:020000040000fa
:04027400080300007b
:020000040000fa
:040278000803000077
:020000040000fa
:04027c000803000073
:020000040000fa
:04028000080300006f
:020000040000fa
:04028400080300006b
:020000040000fa
:040288000803000067
:020000040000fa
:04028c000803000063
:020000040000fa
:04029000080300005f
:020000040000fa
:04029400080300005b
:020000040000fa
:040298000803000057
:020000040000fa
:04029c000803000053
:020000040000fa
:0402a000080300004f
:020000040000fa
:0402a400080300004b
:020000040000fa
:0402a8000803000047
:020000040000fa
:0402ac000803000043
:020000040000fa
:0402b000080300003f
:020000040000fa
:0402b400080300003b
:020000040000fa
:0402b8000803000037
:020000040000fa
:0402bc000803000033
:020000040000fa
:0402c000080300002f
:020000040000fa
:0402c400080300002b
:020000040000fa
:0402c8000803000027
:020000040000fa
:0402cc000803000023
:020000040000fa
:0402d000080300001f
:020000040000fa
:0402d400080300001b
:020000040000fa
:0402d8000803000017
:020000040000fa
:0402dc000803000013
:020000040000fa
:0402e000080300000f
:020000040000fa
:0402e400080300000b
:020000040000fa
:0402e8000803000007
:020000040000fa
:0402ec000803000003
:020000040000fa
:0402f00008030000ff
:020000040000fa
:0402f40008030000fb
:020000040000fa
:0402f80008030000f7
:020000040000fa
:0402fc0008030000f3
:020000040000fa
:0403000008030000ee
:020000040000fa
:0403040008030000ea
:020000040000fa
:0403080008030000e6
:020000040000fa
:04030c0008030000e2
:020000040000fa
:0403100008030000de
:020000040000fa
:0403140008030000da
:020000040000fa
:0403180008030000d6
:020000040000fa
:04031c0008030000d2
:020000040000fa
:0403200008030000ce
:020000040000fa
:0403240008030000ca
:020000040000fa
:0403280008030000c6
:020000040000fa
:04032c0008030000c2
:020000040000fa
:0403300008030000be
:020000040000fa
:0403340008030000ba
:020000040000fa
:100400006fb721000e7f22000e018800000000005f
:10041000000020000000e000020032000001200087
:1004200020028800140007007b0007000000e000a5
:1004300003003a00203525000100200002003700ab
:100440000000200001002000810f70000100320038
:1004500014000700000020000000e000020032004d
:1004600000000200000000008653020000000000af
:100470000040da000000fe004440a90060032000b4
:100480000000e0000300320000002000a00188000e
:100490004440a800000006008a1f78008b1f7800e7
:1004a0000000060091018800800478000000eb0045
:1004b0001a003700e284440032a0b4009905ba0063
:1004c000e284440032a0b4009906ba00e2844400f9
:1004d00032a0b4000006eb00476fde00fd07b2005b
:1004e000636ce10003003a00ebff07000000eb0043
:1004f0000a003700606ce10004003a00005deb0088
:100500008b05e900fdff3e00040037006168e10053
:10051000010032000086eb000b00070019c7ba008b
:100520001905ba000e04e00003003a000a00e000da
:10053000e0ff3a0000000600fe07b2009e018800be
:100540008a047800f5ff3700395dba008b05e900b1
:100550000c003200295dba008b05e900080032006a
:100560000c00e00003003a00e284440032a0b40032
:10057000f5ff370019ddba008b05e900faff3a00f4
:100580008904e800e184440032a0b40000000600c1
:10059000fe17040000000000e24604000000000016
:1005a000bc52040000000000dc5204000000000007
:1005b0003600f800809fbe00829fbe00849fbe0070
:1005c000869fbe003400f80000002000a0018800d3
:1005d0000000fa008460a900240707000000e00082
:1005e000030032000253020000000000000000007f
:1005f0000080fa003400f9004f03be004f02be0035
:100600004f01be004f00be003600f900004006005a
:100610000040da000000fe000000050080017800c4
:1006200002003700b15978000201e9000200e00041
:10063000fcff3a0000000600889fbe008a9fbe00b3
:10064000800478000200e0005b0032000140780086
:10065000814c780082814400f1f99f00e20f510043
:100660005500360091449800a1449800e1f99f009c
:10067000d1f99f00e60f51004f003600b1449800b9
:10068000c1f99f00e80f51004b0036000905ea0050
:10069000630565000a8444000a055100c1ff2f006c
:1006a000010565000080fb008000eb0012102000b7
:1006b0001310200044000700008cbe000a01440013
:1006c00060b99f0071b99f00e80f55003a003600ed
:1006d00020049800310498004004980051049800c8
:1006e00020b99f0031b99f0040b99f0051b99f00c8
:1006f000f80f55003000360060049800710498002f
:10070000000c9800110c9800200c9800310c9800f7
:10071000400c9800510c980020b19f0031b19f000f
:1007200040b19f0051b19f0060b19f0071b19f0027
:1007300000b99f0011b99f00640164007801410075
:1007400002044400020555006011b8000203be0017
:100750000002be000403be006022b8000000720068
:1007600081807200020173008381730010003700e2
:10077000009cbe000294be00400498005104980002
:100780006204980073049800000c9800110c980003
:10079000220c9800330c9800400c9800510c9800e3
:1007a000620c9800730c98000a02b1000802b000b5
:1007b000ff0f5500eeff3e00090078004f05be0018
:1007c0004f04be0000000600020ab900001bb90079
:1007d0000200b800810042008100430000000600d2
:020000040000fa
:1007e00011110000222200003333000044440000b5
:1007f0005555000066660000777700008888000085
:1008000099990000aaaa0000bbbb0000cccc000054
:10081000dddd0000eeee0000cecd0000acab000050
:1008200004000000494400004c45000000000000a6
:10083000546d000072200000537600006300000039
:0c084000543100000054000032000000a1
:020000040000fa
:10084c001400fa002007980031079800420798001e
:10085c00530798006407980075079800060f9800d6
:10086c00170f98007e0090000000e00008003a008e
:10087c0011028000f0f12f00008060000050a000f9
:10088c00100288000000000000000000ffff37008d
:10089c000e0890000000e00008003a0011028000f1
:1008ac00f0f12f00008060000050a00010028800c2
:1008bc000000000000000000ffff37006003200074
:1008cc00100798009e00900060032000808f50005d
:1008dc000800320011028000f0f12f00008060004f
:1008ec000050a00010028800000000000000000072
:1008fc00ffff37001e0090000e0890000000e00083
:10090c00190032007e0090000000e000160032005a
:10091c008e089000010f7800620320008000eb002d
:10092c001e00780041ff07001e007800fe009000ba
:10093c00410898001e00780021c0b3005170980047
:10094c008003eb001e0378009e0a90006e0290005c
:10095c00de0190004e019000be0090002e00900031
:10096c0070000700020037000000eb00000f780059
:10097c001e0078000080fa00000006001200fa0049
:10098c0020079800310798004207980053079800f9
:10099c006407980075079800060f98000000eb009c
:1009ac00100798000e80e800800378000e0b900072
:1009bc00fe0290006e029000de0190004e0190004d
:1009cc00be0090002e0090009dff0700000f7800e5
:1009dc001e0078000000e000020032001e007800cb
:1009ec00c40007001e0090000080fa000000060002
:1009fc000e00fa00100798002107980032079800a3
:100a0c00430798005407980065079800600320007e
:100a1c0078260700000f78001e0078000000e00028
:100a2c0012003200620320008000eb001e007800f0
:100a3c00fefe07003e009000000040006d260700ff
:100a4c00800078001e007800410898001e00780095
:100a5c00400890000000e00004003a001e007800fe
:100a6c009b2607000000eb00000f78001e007800aa
:100a7c000000e0000c0032001e0078008040eb000b
:100a8c00517098008003eb001e037800ee0290007a
:100a9c005e029000ce0190003e019000ae009000ee
:100aac001e0090001f0007001e0078000080fa0056
:100abc00000006001000fa0020079800310798008b
:100acc004207980053079800640798007507980030
:100adc00fe0290006e029000de0190004e0190002c
:100aec00be0090002e009000c1ff07001007980078
:100afc001e0090000000e000050032001e00900077
:100b0c007c00070010002000000f78000200370066
:100b1c000080eb00000f78001e0078000080fa00c7
:100b2c00000006001400fa00200798003107980016
:100b3c0042079800530798006407980075079800bf
:100b4c00060f9800170f98000e089000c008900030
:100b5c00110798001e0090000000e8000000a100a2
:100b6c00100798001e009000610060000000e0007b
:100b7c000800320011028000f0f12f0000806000ac
:100b8c000050a000100288000000000000000000cf
:100b9c00ffff37000e089000c00890004e00900038
:100bac000000e90000004000808040000e0890002a
:100bbc00511098003e0090000000e0001800320038
:100bcc000000eb00000f78000d0037003e00900095
:100bdc001e004000904078000e0890001e0040005f
:100bec007a004000014878003e0090001e00400052
:100bfc00104078000004e000050032001e0fe800f1
:100c0c001e007800ef0f5000f0ff36000100370097
:100c1c00000000000e0890008040eb001168980066
:100c2c006e009000e40f50000800360011028000a6
:100c3c00f0f12f00008060000050a000100288002e
:100c4c000000000000000000ffff37006e00900065
:100c5c00e40f5000020036004000200060079800ae
:100c6c000e089000ee009000310898000e089000dd
:100c7c00ee009000611098000e0890000080e800d3
:100c8c00612507000e0890006c0040005e250700ef
:100c9c000e0890008e089000410098006e009000a5
:100cac00e50010000e089000610098000e089000fe
:100cbc008e089000110898005e019000ae00900024
:100ccc001e0090008f240700800078000e08900012
:100cdc00010878007e0090000000e0000300320064
:100cec007e0090008e089000010878000080fa00c9
:100cfc00000006000400fa00100798000325070006
:100d0c00404080000000e800404088000040800027
:100d1c000000e00007003a009e00900001408800af
:100d2c0040408000e10f50000d003a00bc08070065
:100d3c000b003700704080000000e00008003a0013
:100d4c0000408000b00890001e0090003008900019
:100d5c00808f500002003e009e00900001408800f1
:100d6c00b04080000000e800b04088001e009000f9
:100d7c00b008900060408000808f50000300360067
:100d8c001e00900030089000604088001e0090000b
:100d9c00300890006a00b9008000780000832100c0
:100dac000080400090009000010f78001e00900021
:100dbc009e007800210098001e007800a000900092
:100dcc001e009000310098001e007800200090005a
:100ddc009e0090008180e800110098001e00900099
:100dec008080e8001e007800210098001e00900012
:100dfc00300890006a00b900800078000083210060
:100e0c00808040001e009000510098001e00900051
:100e1c00300890006a00b90080007800008321003f
:100e2c00008140001e009000300890006a00b9005c
:100e3c0080007800008321000080400010007800c2
:100e4c000000e80000097800bd2407007040800015
:100e5c000000e0000900320000408000b008900063
:100e6c001e00900030089000808f5000030031006d
:100e7c000253020000000000000000000080fa0095
:100e8c00000006000800fa00300798000000eb0094
:100e9c00000f78009d2407003e0090000000e00049
:100eac0002003a0000408000010037003e00900034
:100ebc00100798001e0090000080e800292507000c
:100ecc001e009000200890000000e000030032009b
:100edc001e0090006c00400022250700b0408000ee
:100eec000000e800b0408800004080009e009000a8
:100efc000080680000f0a7000000ea000000e90094
:100f0c004f00de0020079800704080000000e000d9
:100f1c000e0032002e0090000000e0000b003200aa
:100f2c001e0090000080e8008000780000882100fe
:100f3c00bc240700304080000000e80030408800ee
:100f4c0010002000000f78000400370040408000a3
:100f5c000000e9004040880086080700782407005c
:100f6c001e007800e10f5000020032001e009000bd
:100f7c005f080700704080000000e00012003200a3
:100f8c00004080009e009000808f50000e003a00c0
:100f9c00e04080000000e0000800320011028000f8
:100fac00f0f12f00008060000050a00010028800bb
:100fbc000000000000000000ffff37000253020099
:100fcc0000000000000000000080fa000000060095
:100fdc000c00fa0040079800510798000000eb0045
:100fec00000f78004e0090000000e00008003a006e
:100ffc0011028000f0f12f00008060000050a00072
:10100c00100288000000000000000000ffff370005
:10101c005e0090000000e00008003a001102800021
:10102c00f0f12f00008060000050a000100288003a
:10103c000000000000000000ffff37003203070033
:10104c005140800011079800e0408000e10f5000f3
:10105c000800320011028000f0f12f0000806000c7
:10106c000050a000100288000000000000000000ea
:10107c00ffff37004e009000900078005e0090005b
:10108c0000804000200798004e00900090007800ef
:10109c001e009000808f50000c0036004e00900017
:1010ac00900078002e009000808f500012003600c7
:1010bc00ae0090001e009000808f50000e00360095
:1010cc0010002000000f78000b0037004e0090003d
:1010dc00900078002e009000808f500004003e009d
:1010ec00ae0090001e009000808f50000200360071
:1010fc0010002000000f78004e009000ae00900011
:10110c00010878001e0078000000e00005003200a5
:10111c00ae0090001e009000008050008000eb009c
:10112c001a0e0700fe020700300798003e009000e0
:10113c000000e00003003a0002530200000000002f
:10114c00000000001e0078000080fa00000006007d
:10115c000400fa00100798000000eb00000f780064
:10116c001e0090000000e00011003200e6020700b3
:10117c00e0408000e10f50000800320011028000b6
:10118c00f0f12f00008060000050a00010028800d9
:10119c000000000000000000ffff37008000eb00a3
:1011ac001e009000f90d0700dd020700000f78000b
:1011bc001e0078000000e00003003a000253020019
:1011cc0000000000000000000080fa000000060093
:1011dc000600fa0020079800cc2307002e00900090
:1011ec000000e00002003a000040800001003700df
:1011fc002e009000000f78001e007800b0089000c0
:10120c0011079800ce2307001e0090000080fa0002
:10121c00000006000800fa00300798000000eb0000
:10122c00000f78003e0090000000e00002003a0041
:10123c0000408000010037003e009000100798002d
:10124c001e009000b0089000210798002e0090001e
:10125c000080fa00000006000600fa002007980043
:10126c00aa2307002e0090000000e00002003a00c4
:10127c0000408000010037002e009000000f780025
:10128c001e007800e010900011079800ac230700b6
:10129c001e0090000080fa00000006000800fa0012
:1012ac00300798000000eb00000f78003e00900023
:1012bc000000e00002003a0000408000010037000e
:1012cc003e009000100798001e009000e010900067
:1012dc00210798002e0090000080fa000000060004
:1012ec000e00fa0050079800610798000000eb0010
:1012fc00000f78006e009000e40f500008003600dc
:10130c0011028000f0f12f00008060000050a0005e
:10131c00100288000000000000000000ffff3700f2
:10132c006e009000e40f50000200360040002000d8
:10133c0060079800752307005e0090000000e00035
:10134c0002003a0000408000010037005e0090006f
:10135c00100798001e009000e010900021079800e4
:10136c00ae0090006e009000808f50007b00320029
:10137c00ee0090002e009000808f50000c00360084
:10138c00004080009e009000808f50000e003200c4
:10139c0000408000b00890006e009000808f5000dc
:1013ac000900310010002000000f78000600370003
:1013bc00004080009e009000808f500002003a0098
:1013cc0010002000000f78001e009000b008900064
:1013dc00310798001e009000e01090001e00900055
:1013ec0030089000808f5000050032001e009000e5
:1013fc00b00890006e009000808f50000300310008
:10140c001e009000ee009000310898001e00900025
:10141c00ee009000611098001e009000600090009b
:10142c000000e000040035006e009000e5001000a4
:10143c001e009000610098001e009000500190006a
:10144c003e0090006a00b900800078000083210003
:10145c0000804000800f51003a003a001e009000be
:10146c000080e800bf2307001e009000b008900029
:10147c0060408000808f5000030036001e009000fa
:10148c0030089000604088001e00900030089000ea
:10149c006a00b900800078000083210000804000c1
:1014ac0090009000410798001e009000ce00900024
:1014bc00210098004e009000a00090001e009000ab
:1014cc00310098004e009000200090009e0090008b
:1014dc008180e800110098001e0090008080e800d8
:1014ec004e009000210098001e00900030089000e3
:1014fc006a00b900800078000083210080804000e1
:10150c001e009000510098001e00900030089000c2
:10151c006a00b9008000780000832100008140003f
:10152c001e009000300890006a00b900800078001e
:10153c000083210000804000100078000000e800cb
:10154c00000978001e0078000000e0000300320063
:10155c00025302000000000000000000f822070007
:10156c000080fa00000006000800fa00300798001e
:10157c00e62207003e0090000000e00002003a0066
:10158c0000408000010037003e00900010079800da
:10159c001e0090000080e800722307001e009000df
:1015ac00200890000000e000030032001e009000b4
:1015bc006c0040006b2307001e0090000080e800c8
:1015cc0080007800a0882100162307000000eb00a3
:1015dc00000f78000c0037009e00900042032000a2
:1015ec001e00410061407800e14f500005003a00b8
:1015fc001e0090001e0040004003b0008040eb0035
:10160c00014878001e0fe8001e0078000000e00082
:10161c00f1ff3400ca220700704080000000e00097
:10162c0003003200b9220700d2060700c4220700cb
:10163c00004080009e009000808f50001b003a00fc
:10164c00704080000000e0000f003200e04080009d
:10165c000000e0000800320011028000f0f12f00c1
:10166c00008060000050a000100288000000000004
:10167c0000000000ffff37000253020000000000d2
:10168c00000000000900370051c4800021079800b9
:10169c0040408000ae009000808f500002003a0065
:1016ac000028ef0001003700c50307000080fa0096
:1016bc00000006000800fa00300798000000eb005c
:1016cc00000f7800be009000210798003e009000ab
:1016dc000000e00008003a0011028000f0f12f0039
:1016ec00008060000050a000100288000000000084
:1016fc0000000000ffff37002e009000d00090008b
:10170c00a0882100808f50001d003a002e00900010
:10171c00a008900060872100808f500018003200d4
:10172c002e009000200890000000e00014003a0009
:10173c0010002000000f78000000eb00100798004c
:10174c000c003700ae0090001e0090004003b0006b
:10175c0061407800e14f500003003a000000eb00bc
:10176c00000f7800060037001e0090000000e80013
:10177c00100798001e0090000000e000f1ff3400fc
:10178c001e0078000080fa00000006000600fa0037
:10179c0020079800ae009000010f78002e009000fa
:1017ac000000e00008003a0011028000f0f12f0068
:1017bc00008060000050a0001002880000000000b3
:1017cc0000000000ffff3700004080009e00780002
:1017dc00808f5000490032001e0078000000e000ad
:1017ec0046003200492207001e007800b1ff0700b6
:1017fc000000e000400032001e80e800d922070003
:10180c001e007800b008900060408000808f50006f
:10181c00030036001e0078003008900060408800fd
:10182c001e007800300890006a00b9008000780033
:10183c000083210000804000900090001107980068
:10184c001e0078009e009000210098001e00900061
:10185c00a00090001e007800310098001e0090003f
:10186c00200090009e80e800110098009e80e80007
:10187c001e009000210098001e0078003008900097
:10188c006a00b9008000780000832100808040004d
:10189c001e007800510098001e007800300890005f
:1018ac006a00b900800078000083210000814000ac
:1018bc001e007800300890006a00b90080007800a3
:1018cc000083210000804000100078000000e80038
:1018dc000009780000408000b00890001e007800dd
:1018ec0030089000808f500003003100025302003a
:1018fc000000000000000000112207000080fa0028
:10190c00000006000a00fa00400798000000eb00f7
:10191c00000f7800ce009000110798004e00900048
:10192c000000e00008003a0011028000f0f12f00e6
:10193c00008060000050a000100288000000000031
:10194c0000000000ffff37000000eb0020079800ac
:10195c001e00900057ff07000000e0004d00320011
:10196c00e04080000000e00045003a001e009000be
:10197c00b00890000040800030089000808f50002c
:10198c000400360010002000000f7800100020002a
:10199c00904088001e0090000080e8007122070033
:1019ac001e009000b008900060408000808f5000b6
:1019bc00030036001e009000300890006040880044
:1019cc001e009000300890006a00b900800078007a
:1019dc0000832100008040009000900031079800a7
:1019ec001e009000be009000210098003e00900068
:1019fc00a00090001e009000310098003e00900066
:101a0c00200090009e0090008180e800110098005a
:101a1c001e0090008080e8003e009000210098009d
:101a2c001e009000300890006a00b9008000780019
:101a3c0000832100808040001e009000510098001f
:101a4c001e009000300890006a00b90080007800f9
:101a5c0000832100008140001e009000300890009f
:101a6c006a00b900800078000083210000804000eb
:101a7c00100078000000e80000097800050037002d
:101a8c001e0090006c0040008000780060872100f0
:101a9c00e42107001e0078000080fa000000060018
:101aac001e00fa0010002000000f78000000eb0070
:101abc00300798000000eb00200798001100370059
:101acc00214128002e0090000080400090407800ba
:101adc00680147002e00900000004100014878008a
:101aec00e80047002e009000008040001040780075
:101afc000004e000070032002e0090000000e80017
:101b0c00200798002e009000ef0f5000ecff3400df
:101b1c0001003700000000000000eb0010079800e7
:101b2c002e003700e07f2100300798000000eb000a
:101b3c00400f98000000eb00500f98007c0147000c
:101b4c00fa00470078004700d70b0700ce09900039
:101b5c005e099000ee0890006800470003037800cf
:101b6c00820278000002eb008001eb00010178009a
:101b7c00800078003e00900080fb07008000780019
:101b8c001e00900000014000a081200000004100d8
:101b9c00010878001e00900080004000a081200009
:101bac0000804000100078000000e00003003200cc
:101bbc0010002000000f7800020037000000eb003e
:101bcc00000f78001e0078000000e00007003200d3
:101bdc001e0090000000e800100798001e00900006
:101bec000000e000cfff34000100370000000000cf
:101bfc001e0078000080fa00000006000200fa00c7
:101c0c00a7ff0700000f78001e007800e10f5000be
:101c1c0002003a00621a0700000f78001e007800dc
:101c2c00e10f50000e003a0011028000f0f12f007d
:101c3c00008060000050a00010028800000000002e
:101c4c00000000000080eb00c04088001000200065
:101c5c00704088000a28ef00f22007000b003700c4
:101c6c001e007800e10f400008003a0011028000cd
:101c7c00f0f12f00008060000050a00010028800de
:101c8c000000000000000000ffff370080208400ef
:101c9c000080fa00000006000200fa00551b070045
:101cac0078fc07000000eb00000f780007003700fd
:101cbc001e00780080004000a081200000804000c1
:101ccc00100078006ffc07001e0fe8001e00780063
:101cdc000000e000f6ff3400ef0407001102800062
:101cec00f0f12f00008060000050a000100288006e
:101cfc0000000000000000000e28ef00e0200700ac
:101d0c000080fa00000006000000fa00e0408000ad
:101d1c000000e800e04088000080fa0000000600a7
:101d2c000e00fa000000eb00000f78000000eb0042
:101d3c0010079800f52007000000eb003007980012
:101d4c00e04080000000e00008003a001102800032
:101d5c00f0f12f00008060000050a00010028800fd
:101d6c000000000000000000ffff3700e040800092
:101d7c000000e900e0408800e04080000000e00046
:101d8c00ae003a00404080000000e000ab003200a2
:101d9c0081003700e0c3800030009000000f780015
:101dac001e007800a0089000410798001e007800e3
:101dbc00700090009e00780081089000210098002f
:101dcc001e007800000890009e007800f100900042
:101ddc00110098004e009000900090001e017800b9
:101dec006c004100808f500004003a001e00780007
:101dfc00800890004e009000110098001e007800a2
:101e0c008000eb00210898004e0090001000780034
:101e1c008000e9004e009000010878001e00780058
:101e2c00d0009000510798001e0078002000900010
:101e3c009e007800b1009000210098001e007800f0
:101e4c00300090009e007800a100900011009800d6
:101e5c005e009000900090001e80e800808f500083
:101e6c0004003a001e007800b00090005e00900064
:101e7c00110098001e0078008000eb0051009800c3
:101e8c005e009000100078008000e9005e00900079
:101e9c00010878001e007800b008900060408000b7
:101eac00808f5000030036001e0078003008900030
:101ebc00604088001e007800300890006a00b9006d
:101ecc008000780000832100008040001001900009
:101edc00620798001e007800ee0090002100980028
:101eec006e009000a00090001e0078003100980059
:101efc006e009000200090009e80e8001100980079
:101f0c009e80e8006e009000210098001e00780072
:101f1c00300890006a00b90080007800008321002e
:101f2c00808040001e007800510098001e00780050
:101f3c00300890006a00b90080007800008321000e
:101f4c00008140001e007800300890006a00b90043
:101f5c008000780000832100008040001000780091
:101f6c000000e800000978001e007800b00890001e
:101f7c000040800030089000808f50000600360032
:101f8c003e00900080004000208120000080400036
:101f9c001100200001087800b0c380000000e000b0
:101fac007cff3a001e0078000000e00001003200c7
:101fbc007004070082408000220798002e009000d9
:101fcc000000e00010003200a50007000000e00057
:101fdc00060032003e00900080004000208120006e
:101fec000080400011002000010878002e009000b5
:101ffc000000e900200798002e0090000000e0008f
:10200c00f1ff3a001028ef003e00900080004000e5
:10201c002081200000804000100078000000e000cb
:10202c0006003200100020001007980000408000cd
:10203c0002530200000000000000000040200700d6
:10204c001e0090000080fa00000006000200fa005a
:10205c0051408000010f78001e0078000080fa00cb
:10206c00000006000400fa000000eb00000f7800ee
:10207c0051408000110798001e0090000080fa006b
:10208c00000006000000fa00404080000080fa00ca
:10209c00000006000400fa00100798001e009000d3
:1020ac000000e00002003a00004080000100370010
:1020bc001e009000000f78001e0078000000e00069
:1020cc0008003a0011028000f0f12f00008060003f
:1020dc000050a0001002880000000000000000006a
:1020ec00ffff37009e0078007a8040000080fa00e5
:1020fc00000006000a00fa0020079800310798003b
:10210c00420798003e0090000000e00008003a00f2
:10211c0011028000f0f12f00008060000050a00040
:10212c00100288000000000000000000ffff3700d4
:10213c004e0090000000e00008003a001102800000
:10214c00f0f12f00008060000050a0001002880009
:10215c000000000000000000ffff37002e00900080
:10216c000000e00002003a0000408000010037004f
:10217c002e009000100798001e00900050709000e8
:10218c00e24f50000a003a001e009000c008900078
:10219c003e009000010878009e0090004e009000d8
:1021ac000108780010002000000f780010003700a4
:1021bc001e00900050709000e14f50000a003a0051
:1021cc001e009000c00890003e00900001087800ae
:1021dc004e0090008000eb000108780010002000f9
:1021ec00000f7800020037000000eb00000f7800b1
:1021fc001e0078000080fa00000006000400fa00bf
:10220c0010079800e04080000000e0000800320059
:10221c0011028000f0f12f00008060000050a0003f
:10222c00100288000000000000000000ffff3700d3
:10223c00b5fe0700b51f0700814080001e0090000e
:10224c000080400080408800bd1f0700b4fe0700de
:10225c00000f78001e0078000080fa0000000600d5
:10226c001000fa000000eb00000f7800e040800046
:10227c000000e000cc003a00504080000000e80074
:10228c00100798009e009000514088001e0090009e
:10229c000000e00016003a001040800010007800aa
:1022ac000000e0000800320011028000f0f12f0065
:1022bc00008060000050a0001002880000000000a8
:1022cc0000000000ffff370011408000210798003c
:1022dc002040800010408800ae0090002140880013
:1022ec00a04080000000e800a0408800a103070087
:1022fc00c04080009e009000808f500099003900f3
:10230c000100370000000000104080001000780031
:10231c000000e00003003a000080eb00c0408800a1
:10232c00900037001040800030009000300090008a
:10233c00300798003e0090009000900041079800f4
:10234c009e0090004e009000808f500003003100e2
:10235c00ce009000c1408800820037003e00900003
:10236c00d0009000510798003e0090002000900093
:10237c00be009000b1009000210098003e0090003b
:10238c0030009000be009000a10090001100980059
:10239c005e009000900090003e0090000080e800ed
:1023ac00808f500004003a003e009000b000900076
:1023bc005e009000110098003e0090008000eb0041
:1023cc00510098005e009000100078008000e90039
:1023dc005e009000010878003e00900020089000fc
:1023ec000000e0001f0032003e009000a0089000aa
:1023fc00610798003e00900070009000be009000b5
:10240c0081089000210098003e0090000008900088
:10241c00be009000f1009000110098006e0090003a
:10242c00900090003e0090006c004000808f5000a7
:10243c0004003a003e009000800890006e0090006e
:10244c00110098003e0090008000eb0021089800dd
:10245c006e009000100078008000e9006e00900083
:10246c00010878003e009000b008900060408000a9
:10247c00808f5000030036003e0090003008900022
:10248c00604088003e009000300890006a00b9005f
:10249c0080007800008321000080400090009000b4
:1024ac00710798003e009000fe00900021009800fb
:1024bc007e009000a00090003e009000310098003b
:1024cc007e00900020009000be0090008180e8000b
:1024dc00110098003e0090008080e8007e00900083
:1024ec00210098003e009000300890006a00b9006e
:1024fc008000780000832100808040003e00900026
:10250c00510098003e009000300890006a00b9001d
:10251c008000780000832100008140003e00900084
:10252c00300890006a00b900800078000083210018
:10253c0000804000100078000000e80000097800de
:10254c003e009000b00890000040800030089000e1
:10255c00808f50006bff360010002000000f7800b9
:10256c0069ff370000408000300890006a00b90015
:10257c00800078000083210000804000100078006b
:10258c00e10f50000200360010002000000f780010
:10259c00904080000000e000060032001000200097
:1025ac00000f780003003700804080000000e80036
:1025bc00804088001e0078000080fa0000000600b1
:1025cc000400fa00e04080000000e000030032004c
:1025dc001000200090408800340037001228ef00d3
:1025ec0061408000010f78000c0037001e0078005d
:1025fc000000e00008003a0011028000f0f12f000a
:10260c00008060000050a000100288000000000054
:10261c0000000000ffff37001e0fe9001e007800cd
:10262c006a00b9008000780000832100008040001f
:10263c00100078000000e000ecff32001e00780073
:10264c006a00b900800078000083210000804000ff
:10265c00100798001e009000100090009000900051
:10266c001e009000110098001e0090009000900039
:10267c001e00900064004000808f500004003a005f
:10268c001e009000b00090001e00900011009800f9
:10269c001e00900010009000300090000040880058
:1026ac009e00780061408800004080000080fa00a5
:1026bc00000006000400fa00000f780011079800d3
:1026cc001e0078000000e00008003a0011028000b3
:1026dc00f0f12f00008060000050a0001002880074
:1026ec000000000000000000ffff370000408000e9
:1026fc006c004000800078001e007800e71e070088
:10270c00110020001e009000a00807000080fa00b5
:10271c00000006000800fa00100798002107980036
:10272c00320798001e0090000000e00008003a00fc
:10273c0011028000f0f12f00008060000050a0001a
:10274c00100288000000000000000000ffff3700ae
:10275c00e04080000000e00008003a001102800018
:10276c00f0f12f00008060000050a00010028800e3
:10277c000000000000000000ffff37000040800058
:10278c00ae00900001f0a000610098001e009000c7
:10279c0090009000010f7800004080009e007800af
:1027ac0071009800004080009e007800a10090000d
:1027bc00010898001e007800200090000140800065
:1027cc00ec8040001100980000408000ec004000bc
:1027dc001e00780021009800004080009e009000b0
:1027ec00210898001e009000100078008000e8007e
:1027fc001e00900001087800110020003e0090009f
:10280c00620807000080fa00000006000800fa00c9
:10281c001007980021079800320798001e009000be
:10282c000000e00008003a0011028000f0f12f00d7
:10283c00008060000050a000100288000000000022
:10284c0000000000ffff37001e0090009000900079
:10285c00010f7800004080009e0078007100980005
:10286c00004080009e007800a100900001089800b4
:10287c001e0078002000900001408000ec80400099
:10288c001100980000408000ec0040001e00780011
:10289c0021009800004080009e00900021089800c4
:1028ac001e009000100078008000e8001e009000d0
:1028bc00010878003e0090000000e00002003200a9
:1028cc000080eb0020079800be0090002e009000c6
:1028dc002e0807000080fa00000006000e00fa0027
:1028ec00600798006e00900030009000300090005f
:1028fc00100798001e0090000000e00008003a004d
:10290c0011028000f0f12f00008060000050a00048
:10291c00100288000000000000000000ffff3700dc
:10292c001e009000a0089000210798001e00900047
:10293c00700090009e00900081089000210098008b
:10294c001e009000000890009e009000f100900086
:10295c00110098002e009000900090001e00900036
:10296c006c004000808f500004003a001e00900064
:10297c00800890002e009000110098001e0090001e
:10298c008000eb00210898002e00900010007800c9
:10299c008000e9002e00900001087800e0408000e3
:1029ac000000e00057003a001e009000d00090009c
:1029bc00310798001e009000200090009e009000af
:1029cc00b1009000210098001e0090003000900093
:1029dc009e009000a1009000110098003e00900015
:1029ec00900090001e0090000080e800808f500046
:1029fc0004003a001e009000b00090003e009000d1
:102a0c00110098001e0090008000eb00510098000f
:102a1c003e009000100078008000e9003e0090001d
:102a2c00010878001e009000b00890006040800003
:102a3c00808f5000030036001e009000300890007c
:102a4c00604088001e009000300890006a00b900b9
:102a5c0080007800008321000080400090009000ee
:102a6c00410798001e009000ce00900021009800b5
:102a7c004e009000a00090001e00900031009800c5
:102a8c004e009000200090009e0090008180e80095
:102a9c00110098001e0090008080e8004e0090000d
:102aac00210098001e009000300890006a00b900c8
:102abc008000780000832100808040001e00900080
:102acc00510098001e009000300890006a00b90078
:102adc008000780000832100008140001e009000df
:102aec00300890006a00b900800078000083210053
:102afc0000804000100078000000e8000009780019
:102b0c0018003700c1c38000510798001e009000c8
:102b1c00de009000710098005e009000a000900014
:102b2c001e009000010898005e00900020009000ac
:102b3c009e009000ec804000110098001e00900058
:102b4c00ec0040005e009000210098001e009000f8
:102b5c006187210021089800b0c380000000e800c4
:102b6c00b0c388001e009000b008900000408000a8
:102b7c0030089000808f50000500360010002000b7
:102b8c00000f7800100020009040880002003700f1
:102b9c000000eb00000f78001e0078000080fa00a7
:102bac00000006000c00fa0040079800510798003e
:102bbc00e04080000000e00008003a0011028000b4
:102bcc00f0f12f00008060000050a000100288007f
:102bdc000000000000000000ffff37005e009000c6
:102bec008000780001f0a0004e00900001087800f1
:102bfc004e00900030009000000f78001e0078000e
:102c0c000000e00008003a0011028000f0f12f00f3
:102c1c00008060000050a00010028800000000003e
:102c2c0000000000ffff37004e009000c000900035
:102c3c00110798004e00900010009000ce009000fc
:102c4c00a1009000210098004e0090002000900000
:102c5c00ce00900091009000110098001e00900092
:102c6c00900090004e009000808f500004003a00bd
:102c7c004e009000a00090001e00900011009800e3
:102c8c004e0090008000eb00410098001e00900068
:102c9c00100078008000e9001e0090000108780008
:102cac001e007800d0009000210798001e007800cc
:102cbc00200090009e007800b10090002100980048
:102ccc001e007800300090009e007800a10090005b
:102cdc00110098002e009000900090001e80e800db
:102cec00808f500004003a001e007800b000900065
:102cfc002e009000110098001e0078008000eb0060
:102d0c00510098002e009000100078008000e9001f
:102d1c002e009000010878001e007800b00890008a
:102d2c0060408000808f5000030036001e00780049
:102d3c0030089000604088001e0078003008900039
:102d4c006a00b900800078000083210000804000f8
:102d5c0090009000310798001e007800be00900093
:102d6c00210098003e009000a00090001e0078000a
:102d7c00310098003e009000200090009e80e800fa
:102d8c00110098009e80e8003e0090002100980001
:102d9c001e007800300890006a00b90080007800ae
:102dac0000832100808040001e00780051009800b4
:102dbc001e007800300890006a00b900800078008e
:102dcc0000832100008140001e0078003008900034
:102ddc006a00b90080007800008321000080400068
:102dec00100078000000e800000978001e00780050
:102dfc00b00890000040800030089000808f500098
:102e0c000200360010002000904088000080fa007c
:102e1c00000006000200fa00000f78001e00780087
:102e2c000000e00008003a0011028000f0f12f00d1
:102e3c00008060000050a00010028800000000001c
:102e4c0000000000ffff3700b01c0700a14080000d
:102e5c001e00780001087800514080001e007800a8
:102e6c0011009800b61c07000080fa000000060054
:102e7c000200fa00000f7800a14080001e007800cc
:102e8c0001087800514080001e0078001100980065
:102e9c000080fa00000006000a00fa0030079800d3
:102eac00410798003e0090000000e00008003a0046
:102ebc0011028000f0f12f00008060000050a00093
:102ecc00100288000000000000000000ffff370027
:102edc004e0090000000e00008003a001102800053
:102eec00f0f12f00008060000050a000100288005c
:102efc000000000000000000ffff3700831c0700eb
:102f0c0051408000110798003e0090001000900086
:102f1c009e00900000805000200798004e0090000a
:102f2c0010007800e10f400003003a000000eb00b5
:102f3c00000f7800250037003e00900090007800cc
:102f4c00a0408000808f50000b0032003e009000ab
:102f5c00900090001e009000808f500006003e00f4
:102f6c0010002000000f78004e0090008000eb0055
:102f7c0001087800150037004e0090009000780092
:102f8c002e009000808f50000b0036004e009000f9
:102f9c00900078002e009000808050004e00900031
:102fac00010878003e009000b1ff07000000eb0024
:102fbc00000f7800050037004e0090008000eb00f9
:102fcc000108780010002000000f78005c1c07003e
:102fdc001e0078000080fa00000006000000fa00d5
:102fec0010002000904088000080fa0000000600cd
:102ffc000200fa00000f780001003700000000000a
:10300c002500070080c18000e10f5000fbff360057
:10301c00025302000000000000000000f8ff37001f
:10302c000200fa000000eb00000f780007003700e8
:10303c001e0078006a00b90080007800008321002f
:10304c0000804000571c07001e0fe8001e0078008f
:10305c00e40f5000f6ff360020862100511c0700bb
:10306c00c08621004f1c0700608721004d1c070003
:10307c00008821004b1c0700a0882100491c070078
:10308c002086210010408800c08621002040880046
:10309c000080fa00000006000200fa000f00370062
:1030ac001a1c070030c4800030009000000f78001c
:1030bc001e80e800ab1c0700404080000000e900c7
:1030cc0040408800304080000000e900304088001b
:1030dc001b1c07001e007800050007003040800014
:1030ec000000e000eeff3a000080fa00000006004d
:1030fc000200fa00000f78001e007800507090005b
:10310c000004e00006003a001e0078004008900021
:10311c00ef1c07001e007800ed1c070013003700a1
:10312c001e00780050709000e14f500003003a00f0
:10313c001e007800e61c07000c0037001e0078000b
:10314c0050709000e24f50000800320011028000d5
:10315c00f0f12f00008060000050a00010028800e9
:10316c000000000000000000ffff37000080fa00a4
:10317c00000006000000fa001040800010007800eb
:10318c000000e00003003a000080eb00c040880023
:10319c0004003700104080003000900010007800d0
:1031ac00c04088000080fa00000006000200fa000f
:1031bc0001408000010f78001e0078000080fa00aa
:1031cc00000006000400fa00100798000000eb0055
:1031dc00000f78001e0090000000e00002003a0092
:1031ec0001408000010f78001e0078000080fa007a
:1031fc00000006000200fa00704080000000e000b1
:10320c0003003a0010002000000f7800080037007f
:10321c00e04080000000e00003003a0020002000a5
:10322c00000f7800020037000000eb00000f780060
:10323c001e0078000080fa00000006000800fa006a
:10324c0030079800be009000110798000000eb00ba
:10325c00000f78003e0090000000e0006700320094
:10326c001e009000b00890000040800030089000d4
:10327c00808f5000590031001e00900060009000bb
:10328c000000e00005003500004080003008900090
:10329c00e50010001e009000610098001e009000d8
:1032ac00500190001e009000300890006a00b90098
:1032bc00800078000083210000804000800f5100c6
:1032cc003f003a001e0090000080e800251c07001b
:1032dc0000408000b00890001e009000310898005b
:1032ec001e009000b008900060408000808f50005d
:1032fc00030036001e0090003008900060408800eb
:10330c001e009000300890006a00b9008000780020
:10331c00008321000080400090009000210798005d
:10332c001e009000ae009000210098002e0090002e
:10333c00a00090001e009000310098002e0090001c
:10334c00200090009e0090008180e8001100980001
:10335c001e0090008080e8002e0090002100980054
:10336c001e009000300890006a00b90080007800c0
:10337c0000832100808040001e00900051009800c6
:10338c001e009000300890006a00b90080007800a0
:10339c0000832100008140001e0090003008900046
:1033ac006a00b90080007800008321000080400092
:1033bc00100078000000e8000009780004003700d5
:1033cc0000408000b00890001e009000310898006a
:1033dc0010002000000f7800080037001e0090003d
:1033ec00e01090000040800030089000808f50006a
:1033fc000200310010002000000f78001e00780041
:10340c000080fa00000006000800fa00300798005f
:10341c00be009000110798000000eb00000f780030
:10342c003e0090000000e0006c0032000040800084
:10343c009e009000808f5000080032001102800026
:10344c00f0f12f00008060000050a00010028800f6
:10345c000000000000000000ffff37001e0090007d
:10346c00701090000000e00008003a00110280008b
:10347c00f0f12f00008060000050a00010028800c6
:10348c000000000000000000ffff37001e0090004d
:10349c00701090008000e9001e00900071109800e0
:1034ac001e009000b00890001e009000601090006c
:1034bc00808f5000490032001e0090007010900068
:1034cc000000e00045003a001e0090000080e8007b
:1034dc00a41b07001e009000e01090001e0090003e
:1034ec00310898001e00900030089000e500100094
:1034fc001e009000610098001e009000b008900023
:10350c0060408000808f5000030036001e00900049
:10351c0030089000604088001e0090003008900039
:10352c006a00b90080007800008321000080400010
:10353c0090009000210798001e009000ae009000b3
:10354c00210098002e009000a00090001e0090001a
:10355c00310098002e009000200090009e009000fa
:10356c008180e800110098001e0090008080e80027
:10357c002e009000210098001e0090003008900052
:10358c006a00b90080007800008321008080400030
:10359c001e009000510098001e0090003008900012
:1035ac006a00b9008000780000832100008140008f
:1035bc001e009000300890006a00b900800078006e
:1035cc000083210000804000100078000000e8001b
:1035dc000009780010002000000f78001e00780011
:1035ec000080fa00000006000e00fa005007980058
:1035fc0061079800de009000110798001000200071
:10360c00200798005e0090000000e0007d00320072
:10361c001e009000701090000000e00008003a00be
:10362c0011028000f0f12f00008060000050a0001b
:10363c00100288000000000000000000ffff3700af
:10364c001e009000e01090006e009000808f5000e3
:10365c00030031006e019000020f78000300370068
:10366c001e009000e0109000010f78001e009000ea
:10367c00300890009e0f5000620032001e00900037
:10368c00f01090002e009000808f50005d003a00ea
:10369c00004080009e009000808f500008003a008f
:1036ac0011028000f0f12f00008060000050a0009b
:1036bc00100288000000000000000000ffff37002f
:1036cc001e00900030099000320798001e009000f8
:1036dc009e007800310898001e0090006000900059
:1036ec000000e00004003500520020009e00510054
:1036fc001e009000610098001e0090005001900088
:10370c003e0090006a00b900800078000083210020
:10371c0000804000800f51003a003a001e009000db
:10372c000080e8000f1b07001e009000b0089000fe
:10373c0060408000808f5000030036001e00900017
:10374c0030089000604088001e0090003008900007
:10375c006a00b900800078000083210000804000de
:10376c0090009000410798001e0090004e019000c0
:10377c00220098004e009000a00090001e009000c7
:10378c00310098004e009000200090009e009000a8
:10379c008180e800110098001e0090008080e800f5
:1037ac004e009000210098001e0090003008900000
:1037bc006a00b900800078000083210080804000fe
:1037cc001e009000510098001e00900030089000e0
:1037dc006a00b9008000780000832100008140005d
:1037ec001e009000300890006a00b900800078003c
:1037fc000083210000804000100078000000e800e9
:10380c00000978000080fa00000006000200fa00af
:10381c0000408000e0009000010f78000040800024
:10382c0001408000b1089000e58010006100980014
:10383c001e0078000080fa00000006000200fa006a
:10384c0001408000010f78001e0078000000e000ad
:10385c00050032001e007800701090008000e80017
:10386c001e007800711098001e0078000080fa008d
:10387c00000006000e00fa0040079800510798005f
:10388c00620798000000eb00000f78004e009000db
:10389c000000e0000800320011028000f0f12f005f
:1038ac00008060000050a0001002880000000000a2
:1038bc0000000000ffff370013f90700131a070080
:1038cc00014080004e0090006c0040004200dd0082
:1038dc00008040001000be00e00f5000e08f580048
:1038ec000b003a00014080004e0090000080400028
:1038fc004003b00011c0b300014878006e00900086
:10390c000000e0000200320010002000000f7800e0
:10391c000b1a07001e007800e10f500003003a005c
:10392c00110020006e00900018040700fcf807003e
:10393c00100798001e007800e10f500006003a00b6
:10394c001e0090000000e00003003a000253020049
:10395c000000000000000000ec190700014080008e
:10396c004e0090006c0040004200dd0000804000e2
:10397c001001be0022079800330798002e0090001b
:10398c00be009000e00f5000e08f58001500320090
:10399c005e0090000000e000080032000140800052
:1039ac004e0090006c0040004200dd0000814000a1
:1039bc006000b8000089be000a0037000340800098
:1039cc002e009000be00900061005000e080580076
:1039dc004e0190006c0141004211dd00028141005a
:1039ec000089be00014080004e0090000080400025
:1039fc004003b0008040eb0001487800d01907006c
:103a0c002e009000be0090000080fa00000006001e
:103a1c001400fa00889fbe008a9fbe0030079800f1
:103a2c0042079800530798006407980075079800a0
:103a3c00010f9800160f98000000eb00100798007b
:103a4c003e0090000000e0000800320011028000ef
:103a5c00f0f12f00008060000050a00010028800e0
:103a6c000000000000000000ffff3700a6f8070070
:103a7c00a6190700014080003e0090004003b000f2
:103a8c0061407800e24f5000230032000440800077
:103a9c003e0090006c0040004200dd00000042003f
:103aac001001be004e009000de0090000080ea0085
:103abc008180ea008202780003017800800178009e
:103acc00810078000380620081006100810578002c
:103adc00000578000a00be003e0190006c01410018
:103aec004211dd00020142000089be00014080004d
:103afc003e009000008040004003b00011c0b300b5
:103b0c00014878001e0890000000e000020032001e
:103b1c001000200010079800891907001e00900063
:103b2c00e10f500003003a00110020001e08900025
:103b3c00960307007af80700200798001e009000f3
:103b4c00e10f500006003a002e0090000000e0004b
:103b5c0003003a00025302000000000000000000c5
:103b6c006a1907000e0890000000e00008003200ff
:103b7c00014080003e0090006c0040004200dd00df
:103b8c00008040001000be000e0990000089be00ad
:103b9c00014080003e0090004003b000614078007e
:103bac00e24f5000030032000000eb00000f7800e1
:103bbc001a003700044080003e0090006c0040006a
:103bcc004200dd00000042001001be006e009000bb
:103bdc00fe0090000080ea008180ea0082027800fa
:103bec000301780080017800810078000380620076
:103bfc008100610081047800000478000800be0098
:103c0c003e0190006c0141004211dd0002014200b6
:103c1c000089be0010002000000f780001408000d9
:103c2c003e009000008040004003b0008040eb005c
:103c3c0001487800421907001e0078004f05be00ad
:103c4c004f04be000080fa00000006001600fa00c7
:103c5c00500798006107980072079800030f9800ae
:103c6c00140f9800250f980010002000000f78000a
:103c7c006e0090000000e00008003200110280008d
:103c8c00f0f12f00008060000050a00010028800ae
:103c9c000000000000000000ffff37005e009000f5
:103cac000000e00008003a0011028000f0f12f0043
:103cbc00008060000050a00010028800000000008e
:103ccc0000000000ffff3700de0090001107980095
:103cdc000e1907002e0890000000e00008003200ca
:103cec009e0090006e0090006c0040004200dd00d1
:103cfc00008040001000be002e0990000089be001c
:103d0c009e0090006e0090004003b000614178006e
:103d1c00424798009e0090006e009000008040008a
:103d2c004003b00021c0b300014878001e08900089
:103d3c00e20f50001d003200e20f500005003e0063
:103d4c000000e0004b003200e10f50000600320092
:103d5c003d003700e30f500023003200e40f500009
:103d6c002a003200380037009e0090006e00900050
:103d7c006c0040004200dd00008040001001be00dd
:103d8c007e0090008e089000000071008180710010
:103d9c009e0190006e0190006c0141004211dd000b
:103dac00028141000089be00350037009e00900062
:103dbc006e0090006c0040004200dd00008040006e
:103dcc001000be0061004000e08048009e019000a1
:103ddc006e0190006c0141004211dd000281410036
:103dec000089be00260037009e0090006e009000f7
:103dfc006c0040004200dd00008040007e0190001d
:103e0c008e0990000288be001d0037004e409000c5
:103e1c00e24f5000090032009e0090006e009000ae
:103e2c006c0040004200dd00008040007e019000ec
:103e3c008e0990000288be00110037000000eb00d4
:103e4c00000f78000e003700504080000000e000aa
:103e5c000a00320011028000f0f12f000080600097
:103e6c000050a000100288000000000000000000bc
:103e7c00ffff3700000000000100370000000000c9
:103e8c004e409000e14f50006b003a001e00900035
:103e9c00d0019000330798001e0090002000900085
:103eac009e009000b1009000210098001e00900030
:103ebc00300090009e009000a1009000110098002e
:103ecc003e009000900090001e0090000080e800e2
:103edc00808f500004003a001e009000b00090004b
:103eec003e009000110098001e0090008000eb0036
:103efc00510098003e009000100078008000e9000e
:103f0c003e009000010878001e009000b008900060
:103f1c0060408000808f5000030036001e0090002f
:103f2c0030089000604088001e009000300890001f
:103f3c006a00b900800078000083210000804000f6
:103f4c0090009000410798001e0090004e019000d8
:103f5c00220098004e009000a00090001e009000df
:103f6c00310098004e009000200090009e009000c0
:103f7c008180e800110098001e0090008080e8000d
:103f8c004e009000210098001e0090003008900018
:103f9c006a00b90080007800008321008080400016
:103fac001e009000510098001e00900030089000f8
:103fbc006a00b90080007800008321000081400075
:103fcc001e009000300890006a00b9008000780054
:103fdc000083210000804000100078000000e80001
:103fec00000978001e009000200890000000e000fe
:103ffc000800320011028000f0f12f0000806000f8
:10400c000050a0001002880000000000000000001a
:10401c00ffff370000408000b00890001e009000a9
:10402c0030089000808f50000300310002530200d2
:10403c000000000000000000411807001e0078007e
:10404c000080fa00000006001c00fa0070079800bf
:10405c00010f9800120f9800230f9800340f98004e
:10406c00450f9800560f980010002000000f7800a4
:10407c007e0090000000e00008003a001102800071
:10408c00f0f12f00008060000050a00010028800aa
:10409c000000000000000000ffff37000e08900039
:1040ac000000e0000800320011028000f0f12f0047
:1040bc00008060000050a00010028800000000008a
:1040cc0000000000ffff3700fe0090001107980071
:1040dc000000eb00200798004e0890000000e00064
:1040ec00080032009e0090000e0890006c0040000a
:1040fc004200dd00008040001000be004e09900020
:10410c000089be009e0090000e0890004003b00095
:10411c0061417800624798009e0090000e08900064
:10412c00008040004003b00021c0b300014878007b
:10413c003e089000e20f50001d003200e20f5000cc
:10414c0005003e000000e0004b003200e10f500083
:10415c00060032003d003700e30f50002300320010
:10416c00e40f50002a003200380037009e00900007
:10417c000e0890006c0040004200dd000080400002
:10418c001001be001e089000ae08900000007100e7
:10419c00818071009e0190000e0990006c0141001d
:1041ac004211dd00028141000089be00350037005c
:1041bc009e0090000e0890006c0040004200dd0054
:1041cc00008040001000be0061004000e08048000c
:1041dc009e0190000e0990006c0141004211dd001f
:1041ec00028141000089be00260037009e0090002d
:1041fc000e0890006c0040004200dd000080400082
:10420c001e099000ae0990000288be001d00370008
:10421c006e409000e24f5000090032009e0090006a
:10422c000e0890006c0040004200dd000080400051
:10423c001e099000ae0990000288be0011003700e4
:10424c000000eb00000f78000e003700504080009b
:10425c000000e0000a00320011028000f0f12f0093
:10426c00008060000050a0001002880000000000d8
:10427c0000000000ffff37000000000001003700c5
:10428c00000000006e409000e14f50008c003a009e
:10429c001e009000200890000000e0000800320092
:1042ac0011028000f0f12f00008060000050a0008f
:1042bc00100288000000000000000000ffff370023
:1042cc00e04080000000e00057003a001e00900023
:1042dc00d0019000430798001e0090002000900031
:1042ec009e009000b1009000210098001e009000ec
:1042fc00300090009e009000a100900011009800ea
:10430c004e009000900090001e0090000080e8008d
:10431c00808f500004003a001e009000b000900006
:10432c004e009000110098001e0090008000eb00e1
:10433c00510098004e009000100078008000e900b9
:10434c004e009000010878001e009000b00890000c
:10435c0060408000808f5000030036001e009000eb
:10436c0030089000604088001e00900030089000db
:10437c006a00b900800078000083210000804000b2
:10438c0090009000510798001e0090005e01900074
:10439c00220098005e009000a00090001e0090008b
:1043ac00310098005e009000200090009e0090006c
:1043bc008180e800110098001e0090008080e800c9
:1043cc005e009000210098001e00900030089000c4
:1043dc006a00b900800078000083210080804000d2
:1043ec001e009000510098001e00900030089000b4
:1043fc006a00b90080007800008321000081400031
:10440c001e009000300890006a00b900800078000f
:10441c000083210000804000100078000000e800bc
:10442c000009780018003700c3c3800063079800a8
:10443c001e009000ee009000710098006e0090003d
:10444c00a00090001e009000010898006e009000e3
:10445c00200090009e009000ec804000110098001d
:10446c001e009000ec0040006e00900021009800af
:10447c001e0090006187210021089800b0c38000c5
:10448c000000e800b0c388001e009000b008900047
:10449c000040800030089000808f500008003600eb
:1044ac005e0890000000e000030032005e089000ff
:1044bc0011002000010878001000200090408800b6
:1044cc001e0078000080fa00000006001200fa00be
:1044dc006007980071079800020f98006e0090001a
:1044ec000000e00008003a0011028000f0f12f00fb
:1044fc00008060000050a000100288000000000046
:10450c0000000000ffff37007e0090000000e0007c
:10451c000800320011028000f0f12f0000806000d2
:10452c000050a000100288000000000000000000f5
:10453c00ffff3700ee009000010f78000000eb0049
:10454c00100798009e0078007e0090004003b00099
:10455c0061417800424798009e0078007e009000f0
:10456c00008040004003b00021c0b3000148780037
:10457c009e0078007e0090006c0040004200dd0040
:10458c00008040001000be0061004000e080480048
:10459c009e0178007e0190006c0141004211dd000b
:1045ac00028141000089be004e409000e14f500056
:1045bc0089003a001e007800200890000000e000fe
:1045cc000800320011028000f0f12f000080600022
:1045dc000050a00010028800000000000000000045
:1045ec00ffff3700e04080000000e00054003a007c
:1045fc001e007800d0009000310798001e00780053
:10460c00200090009e007800b100900021009800de
:10461c001e007800300090009e007800a1009000f1
:10462c00110098003e009000900090001e80e80061
:10463c00808f500004003a001e007800b0009000fb
:10464c003e009000110098001e0078008000eb00e6
:10465c00510098003e009000100078008000e900a6
:10466c003e009000010878001e007800b008900011
:10467c0060408000808f5000030036001e007800e0
:10468c0030089000604088001e00780030089000d0
:10469c006a00b9008000780000832100008040008f
:1046ac0010019000420798001e007800ce00900088
:1046bc00210098004e009000a00090001e00780091
:1046cc00310098004e009000200090009e80e80081
:1046dc00110098009e80e8004e0090002100980088
:1046ec001e007800300890006a00b9008000780045
:1046fc0000832100808040001e007800510098004b
:10470c001e007800300890006a00b9008000780024
:10471c0000832100008140001e00780030089000ca
:10472c006a00b900800078000083210000804000fe
:10473c00100078000000e80000097800180037002d
:10474c00c2c38000520798001e007800de00900063
:10475c00710098005e009000a00090001e00780090
:10476c00010898005e009000200090001e01780067
:10477c00ec004100110098001e017800ec00410093
:10478c005e009000210098001e00780061872100d7
:10479c0021089800b0c380000000e800b0c3880076
:1047ac001e007800b0089000004080003008900097
:1047bc00808f5000080036000e0890000000e000ca
:1047cc00030032000e089000110020000108780050
:1047dc0010002000904088000080fa0000000600c5
:1047ec000800fa0020079800310798003e0090005e
:1047fc000000e0000800320011028000f0f12f00f0
:10480c00008060000050a000100288000000000032
:10481c0000000000ffff37002e0090000000e000b9
:10482c0002003a0000408000010037002e0090008a
:10483c0010079800351607009e0090003e0090006f
:10484c004003b00061407800e24f500009003a008c
:10485c009e0090003e009000008040004003b0009d
:10486c008040eb000148780010002000000f780019
:10487c00020037000000eb00000f78003016070034
:10488c001e0078000080fa00000006000e00fa00fe
:10489c00889fbe0030079800410798005207980087
:1048ac00630798004e0090000000e0000800320002
:1048bc0011028000f0f12f00008060000050a00079
:1048cc00100288000000000000000000ffff37000d
:1048dc003e0090000000e00002003a000040800022
:1048ec00010037003e009000000f7800071607000b
:1048fc009e0078004e0090006c0040004200dd00ed
:10490c00008040001001be00120798002307980099
:10491c009e0078004e0090006c0040004200dd00cc
:10492c00008040001001be005e009000ee00900080
:10493c000080ea008180ea0002027800030178001e
:10494c008001780081007800030062008100610022
:10495c0081047800000478000800be009e017800f5
:10496c004e0190006c0141004211dd0002814100ba
:10497c000089be00f21507001e009000ae009000ea
:10498c004f04be000080fa00000006000e00fa0082
:10499c00500798006107980051408000010f780083
:1049ac0011408000110798002140800021079800d9
:1049bc00004080000080e8006a1607005e0090004e
:1049cc00e10f40001c003a006e0090000000e00077
:1049dc001900320061c4800031079800004080004b
:1049ec00be0090002100980000408000be009000a6
:1049fc00a1009000310098003e0090002000900033
:104a0c00014080008180e800110098000040800087
:104a1c008080e8003e00900021009800004080005b
:104a2c00a18821005100980050c480000000e800cb
:104a3c0050c488001a0037005e0090001e00400031
:104a4c004007980000408000ce00900011009800b4
:104a5c004e0090009e0f5000060031000040800078
:104a6c000080e800800078002e0090000b160700f4
:104a7c000b003700004080000080e80080007800c8
:104a8c001e00900005160700c0408000ce0090006c
:104a9c00808f500002003100ce009000c140880091
:104aac000080fa00000006000600fa00000f7800f3
:104abc0011079800220798001e007800a19c210085
:104acc00010878001e00900001a021000108780068
:104adc002e00900001082000010878000080fa00e8
:104aec00000006000600fa00000f7800110798007d
:104afc00220798001e0078004189210001087800e7
:104b0c001e009000a18c2100010878002e0090005e
:104b1c0001082000010878000080fa00000006005f
:104b2c000200fa000028ef000628ef000828ef002a
:104b3c000a28ef000c28ef000e28ef001028ef00d9
:104b4c000000eb00000f7800070037001e00780013
:104b5c008000400020812000008040008000eb009d
:104b6c00010878001e0fe8001e0078000000e0002d
:104b7c00f6ff34001428ef001628ef001828ef0079
:104b8c001c28ef000080fa00000006000800fa0064
:104b9c00200798003107980010002000000f7800c3
:104bac00ae009000110798001e0090000000e0007d
:104bbc0008003a0011028000f0f12f000080600024
:104bcc000050a0001002880000000000000000004f
:104bdc00ffff37001e0090000000e0004c00320088
:104bec001e009000700890000000e00048003200a9
:104bfc001e009000700890008080eb00000178008f
:104c0c00110009008280d800800078001e009000fe
:104c1c0000109000808f50003d0039003b150700bc
:104c2c001e009000100178001e009000f00890000b
:104c3c001e009000001090000088b9000000780061
:104c4c00800041001e009000210098001e00900082
:104c5c008000eb00610898001e0090009000780026
:104c6c001e009000110098001e00900010017800aa
:104c7c001e009000700890008000e9001e0090005b
:104c8c00001090000088b9000000780080004100fe
:104c9c001e009000310098001e00900080c0eb00b8
:104cac00216098001e00900080c0eb0031609800dd
:104cbc003e0090000000e0000d003a001e00900045
:104ccc00400090000000e0000f0032001e00900039
:104cdc006800400001f707000000e0000a00320005
:104cec000253020000000000000000000600370024
:104cfc001e009000680040002a1507001e0090005e
:104d0c0072004000271507000d1507000200370040
:104d1c000000eb00000f78001e0078000000e0009f
:104d2c0008003a0011028000f0f12f0000806000b2
:104d3c000050a000100288000000000000000000dd
:104d4c00ffff37001e0078000080fa00000006000c
:104d5c000e00fa00200798003107980042079800cf
:104d6c0053079800444f98000000eb00000f7800a8
:104d7c005e0090000000e00008003a001102800084
:104d8c00f0f12f00008060000050a000100288009d
:104d9c000000000000000000ffff37002e00900014
:104dac000000e0002a0032005e0090000000e000ed
:104dbc00270032004e0090000000e000030032009b
:104dcc003e0090000000e000210032004e009000f8
:104ddc000000e00003003a003e0090000000e000fc
:104dec001b003a0060022000100798009e00900003
:104dfc0060022000808f50000800320011028000f9
:104e0c00f0f12f00008060000050a000100288001c
:104e1c000000000000000000ffff37001e009000a3
:104e2c00de009000010f78001e00780011c0b30066
:104e3c00416098001e027800ce4990004e0190000f
:104e4c00be0090002e009000840007000b0037007d
:104e5c001e0078000000e00008003a0011028000fb
:104e6c00f0f12f00008060000050a00010028800bc
:104e7c000000000000000000ffff37001e0078005b
:104e8c000080fa00000006000a00fa0020079800d3
:104e9c003107980042079800ae0090001107980067
:104eac001e0090000000e00008003a001102800093
:104ebc00f0f12f00008060000050a000100288006c
:104ecc000000000000000000ffff37004e009000c3
:104edc000000e00008003a0011028000f0f12f0001
:104eec00008060000050a00010028800000000004c
:104efc0000000000ffff37001e0090004060900093
:104f0c00e14f50000e003a003e0090000000e0001f
:104f1c00050032001e009000100078008000780020
:104f2c003e009000010878009e0090004e0090001a
:104f3c000108780010002000000f780002003700f4
:104f4c000000eb00000f78001e0078000080fa00d3
:104f5c00000006000c00fa0030079800410798008a
:104f6c00224f98000000eb00000f78003e009000ec
:104f7c000000e0002b0032008080eb003e0090002f
:104f8c0000017800110009008280d80080007800b0
:104f9c004e009000808f500022003900be0090001f
:104fac004e0090000088b9008000780090fd2f0022
:104fbc00808f50001b003e00be0090004e00900001
:104fcc000088b90000007800100798001e009000bf
:104fdc006002b00007150700000f78001e00780073
:104fec000000e0001a0032009e00780021079800b3
:104ffc002e0090006002b000200798001e00780080
:10500c008040eb00416098001e027800ae49900091
:10501c002e019000ce0090003e0090000f00070083
:10502c000b0037001e0078000000e00008003a007a
:10503c0011028000f0f12f00008060000050a000f1
:10504c00100288000000000000000000ffff370085
:10505c001e0078000080fa00000006000a00fa002a
:10506c00000f7800110798002207980063479800fa
:10507c00440798001e0090000000e00004003a0075
:10508c00ce0090004e00900001087800030037001d
:10509c00ae0090004e009000010878004e00900089
:1050ac009e007800710898004e0090009e009000c1
:1050bc0001109800110020004e009000b3fe070074
:1050cc000080fa00000006000200fa00000f7800d1
:1050dc001e0078000000e0000e0032001e00780078
:1050ec008000eb00210098001e0078008000eb008f
:1050fc00010878001e0078008000eb003100980059
:10510c008001eb000001eb008000eb001e0078003a
:10511c00ce0007000080fa00000006000800fa002c
:10512c006047980010002000000f78000000eb0092
:10513c00100798006e4190009e0090001e007800b1
:10514c0084ff0700200798002e009000deff070068
:10515c002e0090000080fa00000006000a00fa0001
:10516c00604798004107980010002000000f78005d
:10517c000000eb00100798006e429000ce019000ea
:10518c000001eb009e0090001e007800f0fe07006e
:10519c00200798002e009000cbff07002e009000f7
:1051ac000080fa00000006000600fa00881f780054
:1051bc0020079800ae009000110798001e00900088
:1051cc000000e00008003a0011028000f0f12f000e
:1051dc00008060000050a000100288000000000059
:1051ec0000000000ffff37001e009000200490001c
:1051fc00eef70700800f540011003a001e009000db
:10520c00300090008000e9001e00900031009800f2
:10521c001e009000300090000000e00005003a00f5
:10522c008001eb000001eb008000eb001e00900001
:10523c008600070010002000000f780002003700e5
:10524c000000eb00000f78001e0078004f0478007f
:10525c000080fa00000006000800fa00881f7800a1
:10526c002007980031079800ae00900011079800b5
:10527c001e0090000000e00008003a0011028000bf
:10528c00f0f12f00008060000050a0001002880098
:10529c000000000000000000ffff37001e0090001f
:1052ac0020049000c1f70700800f540008003a005a
:1052bc001e009000300090008000e8001e0090005e
:1052cc003100980010002000000f78000c0037000f
:1052dc00be0090001e009000a4020700000f780092
:1052ec001e0078000000e000050032001e00900057
:1052fc00300090008000e8001e0090003100980003
:10530c001e0078004f0478000080fa0000000600b0
:10531c000800fa001007980021079800320798003f
:10532c000000eb00000f78001e0090000000e00071
:10533c0012003200ae0090001e009000808f5000d2
:10534c000e003e0024c0b300be0190000001eb0033
:10535c008000eb001e0090007dfe0700000f78001f
:10536c001e0078000000e0000f0032001e007800e4
:10537c00ae009000610898000b0037001e0078000a
:10538c000000e00008003a0011028000f0f12f004c
:10539c00008060000050a000100288000000000097
:1053ac0000000000ffff37001e0078000080fa00ac
:1053bc00000006000600fa0010079800210798006c
:1053cc000000eb00000f78001e0090000000e000d1
:1053dc0010003200ae0090001e009000808f500034
:1053ec000c003e0022c0b3008000eb001e009000b9
:1053fc00d8fe0700000f78001e0078000000e000c7
:10540c000f0032001e007800ae009000610898007a
:10541c000b0037001e0078000000e00008003a0086
:10542c0011028000f0f12f00008060000050a000fd
:10543c00100288000000000000000000ffff370091
:10544c001e0078000080fa00000006001200fa002e
:10545c00500798006107980072079800030f980096
:10546c000000eb00000f7800de00900011079800a0
:10547c001e0090000000e00008003a0011028000bd
:10548c00f0f12f00008060000050a0001002880096
:10549c000000000000000000ffff37006e009000cd
:1054ac000000e00004003a001e0090000010900084
:1054bc000000e00002003a0010002000010037005c
:1054cc000000eb000000e00008003a001102800030
:1054dc00f0f12f00008060000050a0001002880046
:1054ec000000000000000000ffff37000e089000d5
:1054fc00e20f500004003a001e009000700890006b
:10550c00e10f500002003a001000200001003700ab
:10551c000000eb000000e00008003a0011028000df
:10552c00f0f12f00008060000050a00010028800f5
:10553c000000000000000000ffff37002df70700ff
:10554c000000e00003003a007e0090000000e00044
:10555c0002003a0010002000010037000000eb00b0
:10556c000000e00009003a0011028000f0f12f0069
:10557c00008060000050a0001002880000000000b5
:10558c0000000000ffff370000000000df120700e2
:10559c001e009000e00890001e0090007008900023
:1055ac00808f5000030039000e089000e20f50006d
:1055bc001b003a000e099000ee0090001e009000b7
:1055cc0061040700200798001e009000100890004e
:1055dc000000e000090032001e0090007200400044
:1055ec00bef407000000e0000a0032000253020083
:1055fc000000000000000000060037002e009000a4
:10560c000000e00003003200025302000000000022
:10561c0000000000ca120700100020003d003700f7
:10562c007e0090000000e00003003a00c412070066
:10563c000000eb00370037001e0078000000e0008f
:10564c0004003a006600470009f60700100020002d
:10565c00000f7800ba120700abf10700ab1207007d
:10566c001e00900020609000e14f400003003a00c3
:10567c001e0090008040eb00216098001e009000fe
:10568c0030609000e14f400003003a001e00900093
:10569c008040eb0031609800a9120700ee00470033
:1056ac0066004700fcf507000000e00015003a001a
:1056bc001e0090000b0507000000e0000d003200fa
:1056cc00fe0090001e00900068004000f9f30700f7
:1056dc001e009000a004070091f107000000e000fc
:1056ec00a9ff3a0002530200000000000000000075
